:020000040800F2
:10000000603F0020E501000801020008030200082B
:1000100005020008070200080902000800000000AD
:100020000000000000000000000000000B020008BB
:100030000D020008000000000F0200081102000875
:1000400013020008150200081702000859030008EF
:10005000190200081B0200082B0300081D020008FB
:100060001F020008210200082302000825020008E0
:10007000DF080008270200085B08000829020008C2
:100080002B0200089D0800082D0200082F0200081E
:10009000E9020008310200083302000835020008B6
:1000A00037020008390200083B0200083D02000840
:1000B000470300083F02000841020008430200080D
:1000C0004502000847020008490200084B020008E8
:1000D0004D0200087502000899020008C5020008D8
:1000E0004F0200085102000853020008DFF80CD04C
:1000F00004F082FB0048004799030008603F00209D
:100100000CB50022334800920192016841F480311D
:1001100001604FF4A063016801F40031019100997E
:10012000491C0091019911B900999942F3D10168D4
:10013000890333D50121019127490A6842F0100251
:100140000A600A6822F003020A600A6842F00202AA
:100150000A604168416041684160416841F48061E2
:100160004160416821F47C114160416841F4E8112B
:100170004160016841F08071016001688901FCD52E
:10018000416821F003014160416841F00201416092
:100190004168C1F381010229FAD10CBD0192FEE749
:1001A0000C48016841F00101016041680B4A1140AF
:1001B000416001680A4A11400160016821F4802110
:1001C0000160416821F4FE0141604FF41F0181602C
:1001D00096E7000000100240002002400000FFF8F7
:1001E000FFFFF6FE05480047FEE7FEE7FEE7FEE7F5
:1001F000FEE7FEE7FEE7FEE7FEE7FEE7ED000008AC
:100200007047FEE7FEE7FEE7FEE77047704770477E
:100210007047704770477047704770477047704726
:100220007047704770477047704770477047704716
:100230007047704770477047704770477047704706
:1002400070477047704770477047704770477047F6
:1002500070477047704770477047704770477047E6
:1002600070477047704770477047704770477047D6
:100270007047704710B5754C40F22551204603F089
:10028000E9FF002807D0204603F091FFBDE81040A9
:10029000C0B201F054BC10BD10B56D4C40F22551F8
:1002A000204603F0D7FF00280BD0204603F07FFF45
:1002B0000446C0B201F046FCE0B2BDE8104000F0D8
:1002C00038BF10BD10B5634C40F22551204603F0F5
:1002D000C1FF002807D0204603F069FFBDE81040A9
:1002E000C0B201F030BC10BD00B585B06A46002137
:1002F000594802F0BCF9594A01981288000CC0F321
:100300000C0192B2914207D0554AB2EBC04F03D0D4
:10031000A1F52060FF3806D19DF80A200DF10B01F0
:10032000019800F05AFC05B000BD10B5012004F0A2
:1003300077F8002806D000F048FEBDE81040012004
:1003400004F07CB810BD10B500F0DFFE0121BDE85F
:100350001040880703F024BE10B5012003F053F8C5
:10036000002806D001F0C1FFBDE81040012003F0D5
:1003700058B810BD10B5FFF713FF012145F23C003E
:1003800002F081FF0121374802F086FF0121BDE81C
:100390001040084602F06EBFFFF7ECFF482000F067
:1003A000D7FD01F081F801F073FB01F0A1FE01F02F
:1003B0006FFF4FF496442146244800F039F9214656
:1003C000234800F035F92146224800F031F900F0C9
:1003D00097F800F0B1FA00F089FD00F0DFFD01F0C0
:1003E000ABFC00F00FFB4FF4C06003F063FF00F0C4
:1003F000D3F800F0BEFA00F0D2FD00F0E4FD00F00A
:10040000DFFD00F0E1FD00F089FE00F057FE164828
:10041000007820B140F08000012100F0D7FD0024D9
:1004200001F0E7FB00F02FFF01F052FCA00701D123
:1004300000F0EBFC2004000C01D101F07EFCE00395
:1004400001D100F091FF641CEAE7FEE700380140AB
:1004500000440040004800400064004006000020C6
:100460000000F8FF01000612000000200A0E0270D2
:100470000A0C42700A0A8270C17004207047016839
:10048000C07809BA21F0FF01084370470A0A0270D8
:10049000417002207047008840BA7047034610B58B
:1004A0000020024602E09C5C6040521C8A42FAD363
:1004B00010BD034610B50020024602E09C5C521CB1
:1004C00020448A42FAD310BD10B50023052901D279
:1004D000FF2010BD0022891E03E0845C6340521C93
:1004E000D2B28A42F9DB815C994201D0012010BD71
:1004F00010444078162801D0022010BD002010BD05
:100500002DE9F8434FF40070ADF800001826DFF82D
:100510000C848DF8036003248DF802406946404640
:1005200002F0D3FC4FF48067ADF8007004258DF81D
:1005300003508DF802406946404602F0C6FCADF813
:1005400000508DF803608DF802406946404602F085
:10055000BCFC0820ADF800008DF803508DF8024077
:100560006946404602F0B1FCADF800708DF80360BA
:10057000EB4E8DF802406946304602F0A6FC680258
:10058000ADF800008DF803508DF802406946304602
:1005900002F09BFCBDE8F88338B525208DF80000FB
:1005A00001248DF801408DF802408DF80340684623
:1005B00003F085FE0E208DF800008DF80140032524
:1005C0008DF802508DF80340684603F078FE26202F
:1005D0008DF800008DF801408DF802408DF8034041
:1005E000684603F06CFE11208DF800008DF8014084
:1005F0008DF802508DF80340684603F060FE272016
:100600008DF800008DF801408DF802408DF8034010
:10061000684603F054FE0C208DF800008DF8014070
:100620008DF802508DF80340684603F048FE38BD4F
:1006300030B587B00C46054603F0CCFC04A803F0A7
:1006400056FD4FF40072ADF8142004A9284603F0BB
:100650003FFD684603F031FD69462846009403F0EB
:10066000E9FC40F225542146284603F0F0FD012222
:100670002146284603F04BFD0121284603F03DFDAD
:1006800007B030BD7FB50C46054603F0A3FC6846B5
:1006900003F013FD69462846009403F0CBFC40F2BA
:1006A00025542146284603F0D2FD01222146284642
:1006B00003F02DFD0121284603F01FFD7FBD2DE92C
:1006C000F0410E4607460024964D0AE04021284698
:1006D00003F0B6FD0028F9D0395D284603F063FD2C
:1006E000641CB442F2D34021284603F0A9FD00283F
:1006F000F9D0BDE8F0812DE9F0410E46074600240F
:10070000894D0AE04021284603F09AFD0028F9D0DF
:10071000395D284603F047FD641CB442F2D3402102
:10072000284603F08DFD0028F9D0E2E72DE9F041DD
:100730000E46074600247D4D0AE04021284603F07E
:100740007FFD0028F9D0395D284603F02CFD641C9C
:10075000B442F2D34021284603F072FD0028F9D0BC
:10076000C7E770477047F0B58BB01E4615460C467C
:10077000074602F07FF8684602F005F9102003965C
:100780000094CDE9015080200590800109906946D0
:10079000384602F0DBF80121384602F001F9012267
:1007A0000A21384602F006F90BB0F0BD70B51546C7
:1007B000002916D05E4C2278002A12D10122227024
:1007C0000B4658490246091D5A48FFF7CCFF012243
:1007D0008021544803F0B3FC002D02D0207800287B
:1007E000FCD170BD70B51546002917D0504C627809
:1007F000002A13D1012262700B4602464A494D4835
:10080000091D3C30FFF7AFFF01228021464803F06D
:1008100096FC002D02D060780028FCD170BD70B528
:100820001546002917D0424CA278002A13D1012284
:10083000A2700B4602463D493E48091D2838FFF785
:1008400092FF01228021394803F079FC002D02D06B
:10085000A0780028FCD170BD704770B54FF40055EA
:100860000024284602F0C9F818B1284602F0D3F84F
:1008700001244FF40045284602F0BFF818B128467D
:1008800002F0C9F801E0002C07D0002280212548A1
:1008900003F055FC26490020087070BD70B54FF07C
:1008A00000750024284602F0A8F818B1284602F086
:1008B000B2F801244FF00065284602F09EF818B106
:1008C000284602F0A8F801E0002C07D00022802181
:1008D000154803F034FC16490020487070BD10B56F
:1008E0000024202002F089F818B1202002F093F8AB
:1008F0000124802002F081F818B1802002F08BF8EA
:1009000001E0002C07D000228021084803F017FCEA
:1009100007490020887010BD7047000000080140A2
:10092000000C0140003801400044004000480040F5
:10093000010000204400024038B54FF40060ADF8DB
:10094000000048208DF80300F34D03248DF8024089
:100950006946284602F0B9FAA914ADF8001018202B
:100960008DF803008DF802406946284602F0ADFA82
:1009700038BD08B514208DF8000001208DF8010065
:1009800002218DF802108DF80300684603F097FCF1
:1009900008BD1FB54FF6FF7404EAC1018DF80A00C7
:1009A000ADF800100421ADF80210012004EAC201E4
:1009B00000238DF80C00ADF804108DF80B300621E3
:1009C0008DF80D00ADF80610ADF80830684601F05E
:1009D0001AFD1FBD10B50021D04C0A464B1E01EB7D
:1009E000410000EB8110491C24F8203004EB80000A
:1009F000EC30042920F8EA3C428382838277C27774
:100A0000EDDB10BD70B5C64E304601F075FC01201F
:100A100000F062FAC349304601F081FC012801D0A0
:100A2000002070BDFFF7D6FFBE4D41F6FF740A3DB2
:100A30002878000701D5002200E02246688881B2AC
:100A40000020FFF7A6FF224611460120FFF7A1FF75
:100A5000688840F6FF01084381B222460220FFF772
:100A600098FF01220221304601F04FFD012000F0E5
:100A700050FA012070BDAB490A39B1F90220824217
:100A800001D04880BEE77047A74A0021535C8342EB
:100A900001D101207047491CC9B20C29F6D30020AE
:100AA000704710B504000BD0FFF7EEFF40B19D4832
:100AB0000178A14202D00480FFF7A4FF012010BDFD
:100AC000002010BD2DE9F0410546DDE90670002447
:100AD000C1F30A0602B108240BB144F001040FB1BE
:100AE00044F0020408B144F0040425B12846FFF79D
:100AF000CBFF00B900258B488A490A380278A24208
:100B000008D1B0F90220B24204D1002D09D00A78F0
:100B1000AA4206D00470468005B10D80BDE8F041C0
:100B200070E7BDE8F0812DE9F0477E4E00240F46C6
:100B3000B61F36F91410814217D1DFF8E491002571
:100B40004FF400282146484601F033FD012807D024
:100B50006D1C4545F6D307B13C700020BDE8F08719
:100B60004FF0FF3026F8140003E0641CE4B2022CBE
:100B7000DFD90120F2E7F8B50446007A50B1606889
:100B8000051469462846FFF7CEFF664E644FB61F30
:100B900018B114E02068050EF3E79DF80010384600
:100BA00001F042FD5F480A384178491C4170FFF767
:100BB00029FF9DF800104FF0FF3026F811000120AA
:100BC00000F0B1F92146384601F0A7FC8DF800008D
:100BD000042801D026F81050F8BDF0B5041403B273
:100BE0004E4D002000EB400606EB801635F92660DE
:100BF0009E4203D0401C0428F4DB01E0042814DBEF
:100C0000002000EB400606EB801635F92660761CC6
:100C100003D0401C0428F4DBF0BD00EB400606EBDB
:100C20008016042825F82630F6DA00EB400303EBA3
:100C3000801605EB86000023448080F80B311CE011
:100C400090F80A41002CE7D1B0F806714FF0040C7F
:100C50002F440CEB860CCC5C07F80C4090F8064156
:100C6000641CE4B2A0F80641B0F80871BC4202D19D
:100C7000012480F80A415B1CDBB29342E0D3F0BD53
:100C80002DE9F04391460022244F944602EB4204A2
:100C900004EB821537F92540661C28D020F8124055
:100CA00007EB8504668821F81260B4F80861B4F88F
:100CB0000681464506D194F80A81B8F1000F19D093
:100CC00084F80AC14FF004083E4408EB8505765DC0
:100CD00009F8026094F808516D1CEDB2A4F80851AF
:100CE00001249C54521C042AD0DBBDE8F08303F895
:100CF00002C0F7E703F802C094F80B61761CF6B265
:100D000084F80B610A2EEDD94FF0FF3627F82560E5
:100D100084F80BC1E6E700000008014088000020CD
:100D2000006400400E0000203A480008F0B5682733
:100D3000DDE905540770661D4670F6438670C7707E
:100D40000171427151408371C01D5940002207E07A
:100D50000DB1AB5C037010F8013B5940521CD2B28C
:100D6000A242F5D301701621417004F10900F0BDD3
:100D7000F0B585B0164604228DF80820002241EA1D
:100D80000040CDE900208DF80920757814462D1D0E
:100D90006F4612E00020AC4208D2315D3A18401C88
:100DA000641CC0B2D172A4B20828F4D3002806D0C3
:100DB0008DF80A006846FFF7DEFEAC42EAD305B0C4
:100DC000F0BD10B50023052901D2FF2010BD00227F
:100DD000891E03E0845C6340521CD2B28A42F9DB74
:100DE000815C994201D0012010BD10444078162842
:100DF00001D0022010BD002010BD0178682901D06B
:100E0000FE2070474178001DDBE710B5002400F09C
:100E100007F8002803D0641CA4B2102CF7D310BD2F
:100E20002DE9F04387B005AB04AA02A96846FFF795
:100E300027FF002005A90A5C2AB1042808D3002056
:100E400007B0BDE8F083401CC0B20428F3D3F6E736
:100E5000DFF87C901F4F00250DF1100837F81500C2
:100E600009EB051618F805103154401C84B230788F
:100E7000042C21D3682821D1F07868281ED1B078BD
:100E80007178C043C0B2814218D1102C16D2201FF5
:100E9000C2B28A4212D812D1C1B206F10400FFF7E1
:100EA00090FF58B902A800243DF9151030F915003B
:100EB000324600F064FA02E0682800D0002427F8E7
:100EC00015406D1CEDB2042DC8D30120B8E7000019
:100ED000B80400201A000020012801D0002804D105
:100EE0004FF40041184802F058B8704708B54FF465
:100EF0000040ADF8000014208DF8030003208DF8A9
:100F000002006946104801F0E0FF0020FFF7E4FF0F
:100F100008BD012801D0401C04D14FF400410A480B
:100F200002F03DB87047411E07290BD801228A40C4
:100F3000D1B2064A13784B40137012780A4200D09F
:100F4000E7E7C9E770470000000C014022000020DD
:100F500010B504466FF0040003F0EFF90E49E00805
:100F60004FF47A7208605043486010BD4FF0E021A2
:100F7000486100228A61012008610869C003FCD52C
:100F80000A618A617047044949684843EEE70249AB
:100F900009684843EAE7000024000020704708B5CC
:100FA0001C208DF8000000208DF8010002208DF833
:100FB000020001208DF80300684603F080F908BDA7
:100FC0007047704770477047704770472DE9F0478A
:100FD0000D468146032902D90020BDE8F08700F0C4
:100FE0002DFB0028F9D0BD4F002405F00106A7F124
:100FF000080812E02146484600F013FB58B115B12D
:10100000012D07D103E0204600F08EFA02E02046D1
:1010100000F09CFA3E55641CE4B298F80300844248
:10102000E8D30120D9E7AD4B10B5083B1C7804701C
:101030005878087098781070D87810BD01207047E3
:10104000002070477047704770B5A54C05460221D7
:10105000204602F0FBFA0028F9D02946204602F08B
:10106000B1FA0121204602F0F1FA0028F9D0204619
:1010700002F0AAFAC0B270BDF0B50146974B00204D
:10108000083B964C022201250646DF78B84205D27D
:10109000275C0FB10A5402E00D5400E00E54401CCE
:1010A000C0B20428F1D3F0BD7047002070477047EC
:1010B0008C488A4908390068086170473EB568461F
:1010C00002F018FD854900200839C8604FF08044BF
:1010D000204602F0E9FA41F61F41ADF800104FF446
:1010E0002571ADF804106946204602F032FB01215B
:1010F000204602F046FF01221146204602F034FD50
:101100000121204602F01AFD3EBD74480838C1682E
:101110004231C1604721744803F045B86F48744AB2
:1011200008387249C0E906120B2181800221C18072
:10113000704770490A46B1F80E3402F58261B2F880
:101140001024934204D16B4B93F80C34002B21D123
:10115000684B98540A880C2A02D203F58063D05455
:10116000644840F2FF32B0F81004904202D2401CB2
:10117000088003E05F490020A1F810045D485D4944
:10118000B0F80E04B1F81014884203D15949012077
:1011900081F80C0470472DE9F04156485549B0F8E4
:1011A0001004B1F80E14401A01B200290FD002DC6D
:1011B00001F5806109B20C2920DB4E484D4AA1F1AE
:1011C0000C03B0F80E440020274606460DE04948BF
:1011D00090F80C04002812D0EAE7155DAD2D10D070
:1011E000641CC4F30904401C00B29842F5DDA74218
:1011F00004D24048A0F80E4480F80C640020BDE8FA
:10120000F0811519A1EB000CBCF10C0FEBDBE87AB7
:1012100052282DD16878C038042829D20021012015
:101220002A5C401C5140C0B20A28F9D3285C88428D
:101230001ED12A4F387830B1A81C00F043F801467F
:10124000002000F073FA787830B1A81D00F03AF869
:101250000146012000F06AFA6878C00702D0002039
:1012600000F0D1FA6878800702D5012000F0CBFAAF
:1012700020490C34C4F30900A1F80E04084680F894
:101280000C640120BBE710B50024FFF784FF0028A1
:1012900003D0641CA4B20C2CF7D310BD0F4810B5BA
:1012A000007800280DD00520FFF73DFE0620FFF74F
:1012B0003AFE0720FFF737FEBDE810400820FFF791
:1012C00032BE10BD01780A02417811430A028178CA
:1012D000C078114340EA0120704700003800002028
:1012E0000030014070000020004400405000002801
:1012F0000000843EF804002010B5664B002133F94D
:101300001120541C04D0824202D16348405C10BDBD
:10131000491CC9B20329F2D3002010BD30B50329FE
:1013200014D25C4B421C0DD00022541E8A4205D0C0
:1013300033F91250854201D123F81240521CD2B227
:10134000032AF3D323F81100012030BD002030BD63
:1013500050495248091F00680968401A052801D9F8
:10136000012070470020704710B5FFF7F1FF0028FB
:1013700004D0BDE810400120FFF7D5BD10BD70B509
:101380000846117950292CD0454C512914D05229A6
:1013900022D0532932D105461146424800F073FE4F
:1013A00000282BD03F4AB4F900102846FFF7E0FC94
:1013B000BDE8704000F023B806461546FFF79CFFD5
:1013C00002462946374800F0B9FC002816D0354AB5
:1013D000B4F900103046E9E7BDE87040114600F06E
:1013E00014B89079022805D0052807D1BDE87040CF
:1013F00000F08AB8BDE87040FFF75ABE70BD2748BC
:101400002449091F00680860704770B50C460546FE
:10141000FFF772FF02462146224800F0A5FD002892
:1014200036D01F481F4AB0F900102846FFF7A0FC2D
:10143000FFF7E5FF1B480179522929D1807901285E
:101440000CD0312824D1E079A02813D0B13802285B
:101450001ED8C1B2207AB0B1284616E00021284635
:10146000FFF761FBE01DFFF70AF8BDE8704000B22E
:10147000FFF701BB00212846FFF755FB207ABDE8A6
:101480007040FFF70EBB4FF0FF30BDE8704045E7FE
:1014900070BD000058000020464800087000002081
:1014A000060000200A090020F0B50021F74EF84D93
:1014B000142706F1040C4FF0FF3E0B4673540CF852
:1014C000017040F2432201FB02F005EB800202F6BC
:1014D0000400A0E80840C2F80C38C2F8103882F8BE
:1014E000043982F8053982F8063982F80739002074
:1014F0001418401C84F808390428F9DB491CC2F888
:1015000000380429DADBF0BD0020E14B024640F24E
:101510004321414303EB8101401C81F8042981F8F8
:1015200005290428F3DB7047002140F24322504391
:10153000D74A02EB8002084682F807191318401CAC
:10154000C0B283F808190428F8D3704740F2432248
:101550005043CF4A002102EB800000F60400C16036
:101560000160491E4160704710B5CA4ACA4B1288D3
:101570001B785A43C94B1B785B1C5A4301B14A4341
:10158000A0FB0243002101FB023200FB0121C44801
:1015900000230288204602F0ABFF10BD70B5BB49A6
:1015A000095C40F243225043B94A02EB800404F63E
:1015B0000405D4F80408FFF7D7FFD4F810284FF437
:1015C00001611044085100202860401EC4F808083A
:1015D00070BD70B50D46B0490978884201D300202E
:1015E00070BD40F243214843A94901EB80041046F5
:1015F000D4F81018FEF73AFF15B10020C4F810080F
:10160000012070BDA44B1B78984201D30020704785
:101610009E4B1B5C0B709D49091D085C10700120DE
:101620007047020604D501228A40024202D103E03B
:10163000814201D10120704700207047964902067F
:1016400006D50A7801219140491E014203D104E0E8
:101650000978884201D201207047002070472DE9A7
:10166000F04717460D468146FFF7E8FF002804D0F3
:101670000A2D01D8322F02D90020BDE8F0870024BE
:10168000824EDFF814821CE021464846FFF7C9FF6E
:10169000A8B1305DA84202D02046FFF77FFF0021AD
:1016A00040F243207A4A604302EB800000F60410C7
:1016B00001704170817035557448001D0755641CD8
:1016C000E4B298F800008442DED30120D5E7F0B5FB
:1016D00005291FDD00252C46012203680DE050F886
:1016E000226050F82570BE4200DA154650F824708A
:1016F000BE4200DD14463344521C8A42EFDB50F8F0
:101700002510521E5B1AAC420DD050F824001B1A53
:10171000521E08E000231A4603E050F82240521CF3
:1017200023448A42F9DB93FBF2F0F0BD70B5054625
:1017300040F24320564A684302EB80045348425D1E
:10174000012A15D994F8062904F6061604EB82023C
:10175000C2F814183178491CC9B23170405D814219
:1017600050D304F61400FFF7B2FF0146002030709A
:10177000464B1B1D585D01281ED994F8052904F617
:10178000051004EB8202C2F83C1801785A5D491C2E
:10179000B1FBF2F602FB16110170411E94F8040928
:1017A0005A5D904201D2401C087094F8041904F666
:1017B0003C00FFF78CFF0146C4F8001894F8072995
:1017C00004F6071044F822100378D4F8042804EB38
:1017D000830304F60401C3F800240278521C02704B
:1017E0000868401C08600020211801F6081294F8CF
:1017F000073991F808198B4201D1491C1170401C1E
:101800000428F1DB70BD40F243225043204A2549B1
:1018100002EB8000D0F80C280968D21C8A4204D858
:1018200000F604000268C0E901217047F0B540F2FB
:1018300043246043164C059D04EB8004D4F808084B
:1018400028600020651805F6081695F8081994F820
:101850000779B94213D054F8217043F8207004EB93
:101860008107D7F8007442F8207037788F4204D18E
:10187000491C401C85F80819C0B21E28E5D3F0BDEC
:101880002DE9F04105460024034E27E05E000020CC
:10189000100A002034000020330000203200002015
:1018A000360000207000002040F24320744960435D
:1018B00001EB8000D0F8000802F0BDFE0746714839
:1018C000D0E90023384602F044FE02F0C5FE01468E
:1018D0002846FEF7CBFD641C0544E4B23078844210
:1018E000E2D3A006000EBDE8F0812DE9F843644F75
:1018F000DFF89081054600246E4640F243206043A5
:1019000007EB8000D0F8000802F095FED8E900232C
:1019100002F01FFE02F0A0FE00900020315C401C8F
:10192000C0B205F8011B0428F8D3641CE4B2032CF0
:10193000E3D3A006000EBDE8F8832DE9FF4F07466C
:101940005148BFB093460078DDF83091874203D309
:10195000002043B0BDE8F08F89F800703DA80090EA
:101960001FAB01AA3846FFF761FF054640F243214D
:1019700007FB01F04249002401AEDFF810A101EBA2
:10198000800817E056F824003D99884205D147EABF
:10199000840040F0800189F800101AF8071056F80A
:1019A0002400FFF7E1FDD8F81018084446F8240099
:1019B000641CE4B2AC42E5D35F4600241AE056F85A
:1019C00024103846FEF752FD07441FA850F82400A3
:1019D00002F031FE84462B48D0E90023604602F035
:1019E000B8FD02F039FE01463846FEF73FFD641CA3
:1019F0000744E4B2AC42E2D34299E8000870012007
:101A0000A7E72DE9F04F07461F48BFB09B46007877
:101A1000DDF820811546874202D300203FB099E7C8
:101A200088F800703DA800901FAB01AA3846FFF768
:101A3000FDFE064600240DF104090DF17C0A18E0B4
:101A400059F824103D9A914205D147EA840141F0AA
:101A5000800188F8001059F824102846FEF706FD8A
:101A600005445AF824102846FEF700FD641C05447E
:101A7000E4B2B442E4D3F0008BF800000120CDE7DB
:101A8000100A002048000020330000205E000020E3
:101A90006149002081F80305A1F80605A1F80405B5
:101AA00001F5A16181F80305A1F80605A1F8040577
:101AB00070470B464178091D32B183B1012B10D01C
:101AC000022B10D1FEF732BE2BB1012B05D0022B19
:101AD00009D1FEF7A4BEFEF769BEFEF783BEFEF78E
:101AE000EEBDFEF708BE704710B5B0F80445B0F87B
:101AF000063500F206529C4203D190F80345002CB3
:101B00001CD1C1541388B3F5817F02D800F58064DD
:101B10001955B0F8061540F2FF33994202D2491C1C
:101B2000118002E00021A0F80615B0F80415B0F805
:101B30000625914202D1012180F8031510BD01460E
:101B40003548D1E7704701463448CDE72DE9F047E5
:101B500005468946B0F80605B5F80415401A02B2E4
:101B6000002A0CD002DC02F5806212B2092A3EDBA8
:101B70008CB2002027468046A2F109032FE095F899
:101B80000305002833D0EEE7295D682922D12E19FC
:101B9000F17868291ED196F802C071786FEA0C0CB2
:101BA0000CF0FF0C614515D1A2EB000CACF1040C5C
:101BB0008C4512DB301DFFF704F918B94946304651
:101BC00000F04BF87078241D2044C0F30900A5F8FC
:101BD00004050AE0641CC4F30904401C00B29842E6
:101BE000D2DDA74203D2A5F8044585F80385BDE8F8
:101BF000F0870B4810B5007818B900210648FFF7A8
:101C0000A5FF08480078002804D1BDE81040022153
:101C100002489BE710BD0000402E00204833002002
:101C2000010000200300002030B43F4B3D4C1B68F6
:101C300051B102290FD121789143217000216360B5
:101C400030BC0122FFF735BF0121617021781143BB
:101C500021700221F3E730BC704770B5032936D2FA
:101C60000279324C01EB811304EB8303532A25D014
:101C700014DC2F4D512A19D0522A28D10C46014686
:101C80002A5D1D46284600F06FF900281FD028461F
:101C90002146BDE870400022FFF70BBF552A14D043
:101CA0005A2A14D1F022BDE87040BDE70C46014627
:101CB0002A5D1D46284600F041F8E6E70C461D4621
:101CC0000146284600F0DFF9DFE70F22EBE770BDA1
:101CD000184810B5007888B000280DD111494A681D
:101CE00011480068824207D04A78002432B14A681D
:101CF000801A032800D94C7008B010BD48600DF15F
:101D00000F00FFF7F2FDCDE9004000231A465B21EA
:101D100002A8FFF70BF80122022102A8FFF7C9FE73
:101D2000EAE7000068000020700000205038002022
:101D30004648000803000020704770472DE9FF4720
:101D40004FF0000881468DF808808DF80C80C41D86
:101D500048788E79401FCD1D03279446C0B24FF0BE
:101D6000040A522E76D010DC4FF00107312E72D0CB
:101D700006DC012E65D0022E71D0052E71D10DE04A
:101D8000502E6BD0512E6CD1A2E0A6F15301062942
:101D900067D2DFE801F085762EBAA4B1BCF1010F5D
:101DA0000AD000B1287803A9009102AB224661460F
:101DB000FFF7C3FDA8B1CBE0487902AB00F0010505
:101DC00003A80090224661462846FFF7B6FD00288A
:101DD00048D09DF80C00000600D515268DF80C5053
:101DE000B6E006212046FEF751FB8DF80800612180
:101DF000AFE00228F5D32F78697809F10A00C1B164
:101E00000129EED1009002AB221D61463846FFF752
:101E1000F8FD0028E5D0277068786070AD48C05D97
:101E2000A070E07800F0FC00E0709DF80800001D54
:101E300033E0009002AB221D61463846FFF77DFD7E
:101E4000E7E7012A0DD1487900F001008DF80C0078
:101E500042203BE030E06AE001E002E05AE0012A83
:101E600003D0002004B0BDE8F0874879032100F0DA
:101E700001008DF80C00FFF7A9F827708DF80870A5
:101E800066E00228ADD369782878621CFFF7A1FBD1
:101E90000028A6D02878207005208DF8080057E08B
:101EA0002046FFF7E9F88DF808002044FFF7E8FC2A
:101EB0009DF808100844F0E7002892D02878A21C6A
:101EC000611CFFF79FFB00288BD028782070D5E796
:101ED000E21C611C2046FFF7A6F8A07009E07E48CE
:101EE00001882046FEF7D2FA7C480188A01CFEF744
:101EF000CDFA8DF808A02BE0794801882046FEF73E
:101F0000C5FA78480078A070B8E7211D2046FFF791
:101F1000CCF8C2E70028BCD028780B28BFF461AF0A
:101F200020702878FFF78CF860700220B5E7002851
:101F3000AFD084F800808DF808702878012802D08E
:101F4000CA2805D101E0277002E0674800782070B8
:101F500051219DF808203346CDE900829DF80C20E0
:101F60004846FEF7E3FE7DE72DE9FC410746487849
:101F70000E46CC1D401F89790025C0B2512921D0C1
:101F800008DC01292DD0052925D031294FD0502931
:101F900008D131E052290DD0532906D0562934D02A
:101FA000582939D00020BDE8FC81022857D3217878
:101FB000607813E0032852D3A27861782078FFF785
:101FC0004EFB4BE004284AD3E378A278617820786E
:101FD000FFF734F842E0C8B320780321FEF7F6FF9C
:101FE0003CE004283BD32046FEF749FAC0F3042026
:101FF000022835D0072533E0022830D320780B287B
:102000002DD26178FFF71EF82AE0082827D3211D7A
:102010002046FFF74CF823E0032820D32046FEF7A4
:102020003AFA2F4908802F49A078087018E0022852
:1020300015D3207899280AD0A0280CD0B2280FD028
:10204000CA280DD16078FFF72FF809E007E0607823
:1020500000F08EF804E06078FEF716FD00B9062562
:102060002946F81DFEF712FA02210020CDE90001F1
:10207000B3790DB1622100E0522100223846FEF70B
:1020800055FEC0B28FE72DE9FC410646C41D887994
:102090000F46012801D0002085E70D20DFF84C8095
:1020A0002070601CB8F90010FEF7E0F9401CC5B2C2
:1020B00098F800106019FEF7D9F928440021C0B241
:1020C000CDE900100A46BB7953213046FEF72EFEBB
:1020D00069E70000380000203400002036000020AE
:1020E00052000020500000200500002006000020C3
:1020F00070B55A4C2078AD2839D16078012836D196
:10210000A0781A2833D1218BE08AC94389B288424A
:102110002DD11A212046FEF7CCF9E18A80B28842FF
:1021200025D14F49E07808804E49A08808804E4963
:10213000A07908704D49E07908704D49207A0870FF
:102140004C49607A08704C49A07A4E4A08704B4955
:10215000E07A4D4B08704A49A08908800020211878
:102160008D7B1554897C1954401C0428F7DB70BD05
:102170002DE9F04387B005004FF01A0456D1AD2089
:102180008DF8000001238DF801301A208DF802002F
:10219000334800788DF8030032480088ADF8040019
:1021A000314800788DF80600304800788DF8070037
:1021B0002F4800788DF808002E4800788DF8090027
:1021C0002E480026DFF8C49000788DF80B002C48CC
:1021D000DFF8B0C0DFF8B0800088ADF80C008DF8F3
:1021E0000A6031466F4619F8010030B19DF80A00C7
:1021F00003FA01F210438DF80A001CF801007A1866
:10220000907318F80100491C90740429EBDB4FF619
:10221000FF70ADF81800ADF816601A213846FEF7C9
:1022200048F9ADF81600C043ADF8180000F01BFCEB
:102230000A4E304600F04BFC55B96F46002505E0CC
:102240003988A81900F0D2FCBF1CAD1CA542F7DBF1
:1022500000F00FFC07B0BDE8F083000000FC0008B0
:102260000E00002006000020300000203100002079
:102270003300002032000020000000205000002029
:10228000520000205E000020620000203800002084
:10229000184908B50020086003218DF800108DF85A
:1022A000010002208DF8020001208DF8030068462D
:1022B00002F005F8012002F0D5F84FF4407000F06C
:1022C0008EFF012000F090FF01F084F801F07CF80F
:1022D0000121084601F026F801F076F84FF223407C
:1022E00001F04DF801F070F808BD02480168491C82
:1022F0000160704770000020F74910B588424FF028
:10230000010101D14C0601E04FF08064204600F04D
:10231000D5FF2046BDE81040002100F0CFBF10B52A
:102320000368002223F002030360036843F0010303
:1023300003604FF6FF7300E0521C4468E40701D1CC
:102340009A42F9D14268D2073ED08A79012A0268BE
:102350003CD022F080020260CA79012A026838D09B
:1023600022F0400202600A7A012A026834D022F088
:10237000200202604A7A012A026830D022F010025C
:1023800002608A7A012A02682CD022F008020260D8
:10239000CA7A012A026828D022F0040202608A78F0
:1023A000CC78920742EA04620C7942EA04424C7902
:1023B000098842EA0452491E0A43C261016821F0B9
:1023C00001010160002114E0002010BD42F08002F4
:1023D000C1E742F04002C5E742F02002C9E742F0FF
:1023E0001002CDE742F00802D1E742F00402D5E73F
:1023F000491C4268D20701D09942F9D14068C00710
:10240000E2D1012010BDF0B5827AB44C0121914097
:10241000226842F001022260B04D1C352A688A43CE
:102420002A60AE4AAD4E037B0C324036371DA3B94D
:1024300013688B4313604388B0F806C043EA0C432B
:1024400090F80AC046F83C300388B0F804C043EA6C
:102450000C4390F80AC047F83C30037B012B0ED1A7
:1024600013680B4313600268837A4FEA324246F8DE
:1024700033204268837A4FEA324247F83320974A42
:10248000C37A121D002B136806D00B431360934AC6
:102490000389143213B104E08B43F7E713688B43CD
:1024A00013600389012B02D113680B431360407B37
:1024B000012802D1286808432860206820F0010024
:1024C0002060F0BD00218171C17101724172817281
:1024D000C1728170C170032101710221417101211A
:1024E000018070477D490A6842F001020A600A686B
:1024F00043F60E739A430A600A6842EA00200860B5
:10250000086820F0010008607047002A426901D085
:102510000A4300E08A434261704730B5024600201A
:1025200093685B0108D49068000101D5012003E0A5
:102530009068C00031D5022002EB0012D2F8803141
:1025400003F00103C2F880310B7A43B3D2F8804123
:102550004D681C434B7A43EAC5031C43C2F88041D3
:102560008B7A02F5C07203F00F038B72536823F06D
:102570000F03536053688C7A23435360CB7ACC6843
:1025800043EA04239360CB7B096943EA0121D160CC
:10259000116841F00101116030BD042030BDD2F856
:1025A00080314C7A23430C8843EA4453C2F880318B
:1025B000D6E7002221B101290FD002291BD121E049
:1025C000816801F0010142EA81028168806801F0BE
:1025D00002011143C0F380620CE0816801F4807154
:1025E00042EA91118268806802F4007241EA122185
:1025F000C0F3C0620A439AB1052A01D0072A11D05C
:1026000000207047816801F4803142EA913182688C
:10261000806802F4003241EA1241C0F30072E9E737
:10262000022070470120704741B101290AD00229D8
:1026300003D1816841F4000181607047816841F0F5
:102640008001F9E7816841F40041F5E7202209B1F2
:1026500002617047C26070470246002029B101291B
:1026600002D1106900F003007047D068FAE710B497
:1026700000EB0113D3F8B04114F004041472D3F842
:10268000B04126D0E408546003F5D8731C6804F008
:10269000020454725C6804F00F0494725C68240AAB
:1026A000D4749C68D4729C68240A14739C68240CAB
:1026B00054739C68240E9473DC68D473DC68240A19
:1026C0001474DC68240C5474DB681B0E937410BC07
:1026D000BCE7640D1460D7E700640040006600406A
:1026E0000029016802D041F4803101E021F48031F9
:1026F000016070470268002122F0010242F00202EC
:102700000260406800F00300022800D10121084661
:10271000704702684FF6FF71002322F00202026048
:1027200001E0A1F101014268920701D50029F8D129
:102730004068800700D401231846704702460020F5
:1027400092690A4200D00120704782698A438261FF
:10275000704730B402464FF4807300201C024029B9
:102760002FD012DC072925D008DC042925D0052923
:102770001ED0062932D1906819462AE008291ED0B9
:1027800020292BD11069082123E0B1F5806F1ED0DC
:1027900007DC994218D0B1F5007F1FD19069022162
:1027A00017E0A14218D0B1F5003F17D1506809E0F9
:1027B00090680AE0906821460BE0D068E3E7D068B3
:1027C00000E01069102104E09069012101E09069A6
:1027D000042130BC00F048B85068D4E730BC7047E2
:1027E00030B54FF4807425020822102340292ED0E2
:1027F00010DC072925D007DC042924D005291DD0A9
:10280000062900D1846030BD08291ED02029FAD1C4
:10281000026130BDB1F5806F1FD008DCA14218D035
:10282000B1F5007FF5D1816921F0020118E0A942DC
:1028300018D0B1F5003FECD1436030BD012181607B
:1028400030BD856030BDC26030BDC36030BD036146
:1028500030BD816921F0010102E0816921F00401AC
:10286000816130BD426030BD024600200A4200D086
:1028700001207047016821F0010101600021016021
:1028800041608160C1606949684A0839904203D15A
:10289000486840F00F0006E0644A1432904204D1C8
:1028A000486840F0F00048607047604A2832904223
:1028B00003D1486840F47060F5E75C4A3C329042CE
:1028C00003D1486840F47040EDE7584A50329042D6
:1028D00003D1486840F47020E5E7544A64329042DE
:1028E00003D1486840F47000DDE7504A78329042E6
:1028F00003D1486840F07060D5E74D4A111F9042FF
:1029000003D1086840F00F0006E0494A14329042B3
:1029100004D1086840F0F00008607047444A28324B
:10292000904203D1086840F47060F5E7404A3C32B9
:10293000904203D1086840F47040EDE73C4A5032C1
:102940009042EAD1086840F47020E5E730B50268AB
:1029500047F6F0739A430C6A8B682343D1E9044528
:102960002C4323438C692343CC6923434C6A234380
:102970008C6A234313430360CA6842600A6882601A
:102980004968C16030BD0021016041608160C16063
:10299000016141618161C16101624162816270478F
:1029A0000029016802D041F0010101E021F001019C
:1029B00001607047002A026801D00A4300E08A43A0
:1029C00002607047406880B2704702460020D10024
:1029D00002D51749083901E014490839096811423C
:1029E00000D001207047C10003D51149091F0860BC
:1029F00070470E4908394860704702460020D100F0
:102A000002D50B49083901E0084908390968114223
:102A100000D001207047C10003D50549091F086097
:102A200070470249083948607047000008000240BA
:102A300008040240F54A116801F0380101431160B1
:102A40007047F2490A6822F008020A600A680243E5
:102A50000A607047ED490A6822F010020A600A68AD
:102A600002430A607047E948E9494160E949416029
:102A70007047E648016941F0800101617047E34910
:102A80000420CA68D20701D001207047CA685207E3
:102A900001D502207047C968C906FBD503207047DD
:102AA00018B50346FFF7EBFFFF2407E000940098FA
:102AB000401E0090FBD1FFF7E2FF5B1E012803D010
:102AC000002B00D1052018BD002BEFD1FAE770B51F
:102AD000054640F6FF763046FFF7E2FF042813D1A3
:102AE000CA4C206940F0020020616561206940F015
:102AF000400020613046FFF7D3FF052804D021694C
:102B000041F6FD721140216170BD30B540F6FF7590
:102B10002846FFF7C5FF042812D1BC4C206940F0BD
:102B200004002061206940F0400020612846FFF742
:102B3000B7FF052804D0216941F6FB7211402161DD
:102B400030BD30B540F6FF752846FFF7A9FF0428D1
:102B500027D1AE4CAE48A060AE48A060206940F0DE
:102B600020002061206940F0400020612846FFF7E6
:102B700097FF41F6EF7504280ED1206941F6DF7109
:102B800008402061206940F010002061A249A52082
:102B900008800F20FFF784FF052802D02169294013
:102BA000216130BDF8B50646002000900D460F208B
:102BB000FFF776FF042818D1944C206940F00100FB
:102BC000206135800F20FFF76BFF41F6FE77042868
:102BD00006D1B61C280C009630800F20FFF760FF4E
:102BE000052802D0216939402161F8BD70B506463B
:102BF0000D460F20FFF754FF04280FD1834C2069A6
:102C000040F00100206135800F20FFF749FF0528C3
:102C100004D0216941F6FE721140216170BD70B58A
:102C200006460D460F20FFF73BFF042813D1774CD3
:102C30007748A0607748A060206940F010002061CC
:102C400035800F20FFF72CFF052804D0216941F6BD
:102C5000EF721140216170BDF0B5C043C7B2C0F33F
:102C60000726C0F30745040E0F20FFF719FF0428BD
:102C70003CD1DFF898C16649CCF808106549CCF81A
:102C80000810DCF8101041F01001CCF81010FF2FE4
:102C900007D06148083007800F20FFF701FF0428A4
:102CA0001BD1FF2E07D05C480A3006800F20FFF7AB
:102CB000F7FE042811D1FF2D07D057480C300580AE
:102CC0000F20FFF7EDFE042807D1FF2C07D0524854
:102CD0000E3004800F20FFF7E3FE052806D0DCF855
:102CE000101041F6EF721140CCF81010F0BD70B525
:102CF000054640F6FF763046FFF7D2FE042818D18D
:102D0000424C4348A0604348A060206940F0200046
:102D10002061206940F0400020613046FFF7C0FE8E
:102D200041F6DF71042805D0052802D022690A4047
:102D3000226170BD206908402061206940F01000C8
:102D4000206135480DB1002100E0A5210180304609
:102D5000FFF7A6FE0528ECD0216941F6EF7211407D
:102D6000216170BDF0B5294C0746294816460D462D
:102D7000A0602848A0600F20FFF792FE042814D11D
:102D8000206940F010002061354323493D43891CF0
:102D900045F0F80008800F20FFF782FE052804D0D8
:102DA000216941F6EF7211402161F0BD1748C069F9
:102DB000800870471548006A704714490020C969A7
:102DC000890700D50120704710490020096889064D
:102DD00000D5012070470D4A0029116901D0014337
:102DE00000E081431161704701460020074A012934
:102DF00003D0D2680A4203D17047D169C907FBD01A
:102E0000012070470149C86070470000002002405F
:102E100023016745AB89EFCD00F8FF1F8A4910B544
:102E2000884206D10121042000F03FFA002104204D
:102E30003BE08649884206D10121082000F035FA9E
:102E40000021082031E08249884206D1012110206A
:102E500000F02BFA0021102027E07E49884206D19D
:102E60000121202000F021FA002120201DE07A49D4
:102E7000884206D10121402000F017FA00214020AD
:102E800013E07649884206D10121802000F00DFA36
:102E90000021802009E0724988420AD1841501216D
:102EA000204600F002FA00212046BDE8104000F064
:102EB000FCB910BD10B50121084600F0F6F900215B
:102EC000BDE81040012000F0F0B9F0B5CC78002248
:102ED00004F00F03E40601D58C7823430C784FF0FF
:102EE0000F0C4FF0010EDCB105680E880EFA02F4EB
:102EF0002640A64210D196000CFA06F725EA0707ED
:102F000003FA06F5CE783D43282E02D0482E02D093
:102F100002E0446100E00461521C082AE5D3056028
:102F20000A88FF2A1CD94468002202F108060EFA1A
:102F300006F50E882E40AE420ED196000CFA06F72A
:102F4000BC4303FA06F7CE783C43282E00D14561F6
:102F5000CE78482E00D10561521C082AE5D3446082
:102F6000F0BD4FF6FF710180022181700421C17014
:102F700070470246002092680A4200D00120704744
:102F8000806880B2704702460020D2680A4200D0B2
:102F900001207047C06880B270470161704741618D
:102FA00070470AB10161704741617047C160704765
:102FB00041F48032826181618261816980697047F8
:102FC000284B10B51A684FF68074224042EA001070
:102FD0000843186010BD2449C8617047F0B5214D01
:102FE0006B68440D260184B2C0F30157B440C0F3AE
:102FF0000342032F05D0C0020AD50320904083432B
:1030000007E0686823F0706220F07060686002E09A
:10301000A34343F0706201B122436A60F0BD10B572
:103020008A0721F003040F49120F21440F238C68F3
:1030300093409C438C608B68904003438B6010BD31
:103040000949DC310860704700080140000C01406C
:10305000001001400014014000180140001C014014
:10306000002001400000014000002042A548016806
:1030700041F0010101604168A34A114041600168CB
:10308000A24A11400160016821F480210160416879
:1030900021F4FE0141604FF41F018160704799499E
:1030A0000A6822F480320A600A6822F480220A60E8
:1030B000B0F5803F07D0B0F5802F03D1086840F409
:1030C000A02008607047086840F48030F9E70346A4
:1030D000002059098B4A01290AD002290AD0516AD5
:1030E00003F01F02012393400B4200D001207047E0
:1030F0001168F5E7116AF3E718B500204FF4A064F2
:1031000000903120FFF7E3FF0099491C0091A14294
:1031100001D00028F5D03120FFF7D9FF002800D0DA
:10312000012018BD774A116821F0F80141EAC0007A
:1031300010607047764908607047724B5A680843C0
:1031400022F47C121043586070477149086670473A
:103150006C4A516821F0030101435160704769488E
:10316000406800F00C007047664A516821F0F00199
:10317000014351607047634A516821F4E0610143A3
:10318000516070475F4A516821F4605141EAC000C4
:10319000506070475B4A0029517A01D0014300E03A
:1031A0008143517270475A49D83108607047554A77
:1031B000516821F440410143516070475149002258
:1031C00081F8202081F82020012802D0042802D193
:1031D000052081F8200070474E4908607047494932
:1031E0000A6A02430A6270474A49443908607047D4
:1031F00030B5444A5168484B11F00C0103D0042902
:1032000001D0082901D0036012E05168536801F42D
:1032100070114FF0020413F4803F04EB914102D08F
:1032200053689B0301D53D4B00E03B4B5943016084
:1032300051680F2303EA1111394B5C5C0168E140CE
:1032400041605468072505EA14241C5D21FA04F442
:103250008460546805EAD4241B5DD940C16052687B
:10326000032303EA92322E4B1B1F9A5CB1FBF2F14F
:10327000016130BD234A0029516901D0014300E0BA
:103280008143516170471F4A0029916901D0014370
:1032900000E08143916170471A4A0029D16901D049
:1032A000014300E08143D1617047164A0029D1688B
:1032B00001D0014300E08143D1607047114A0029E9
:1032C000116901D0014300E0814311617047114948
:1032D0004039086070470E49C86470470949C87191
:1032E00070470848416A41F0807141627047054A61
:1032F0000146002092680A4200D00120704701492F
:1033000088727047001002400000FFF8FFFFF6FED1
:10331000000042428004424200127A0000093D004F
:1033200078000020424A0029118801D0014300E0C2
:103330008143118070473E48001D018841F0100113
:10334000018070473A48001D018821F0100101807A
:10335000704737481C30008835491831098840EAE1
:103360000140704700B50246FFF7E5FF3049100CF9
:1033700018310880081D02805DF804EBE2E700B513
:103380000246FFF7D8FF2A49C2F3034008310880FC
:10339000081D02805DF804EBD4E700B50246FFF794
:1033A000CAFF2349100C20310880081D02805DF8F7
:1033B00004EBC7E71E48103000880007010B1C48CB
:1033C00014300088084370471948001D0188890699
:1033D000FCD570471648001D018821F008010180C6
:1033E00001880907FCD570470146114A0020121DCB
:1033F00012880A4200D0012070470D49091D0A8831
:1034000082430A8070470A49091D0988C2B21140E7
:10341000074A1288024202D009B1012070470020F9
:1034200070470349091D0A8882430A8070470000DB
:1034300000280040994910B588420AD1841401211E
:103440002046FFF732FF2046BDE810400021FFF77D
:103450002CBF9349884202D10121041404E0914910
:1034600088420AD10121C4132046FFF727FF2046D6
:10347000BDE810400021FFF721BF10BD30B5028824
:103480004C8802F441530A88CD8822438C882C430F
:1034900022430C8922434C8922438C892243CC89C4
:1034A00022431A430280828B22F400628283098ABB
:1034B000018230BDF0B505460C4602200021AA8BE2
:1034C00085B001264FF240031A40AA832884AF8BAF
:1034D000A268022A21D0A08800B102266846FFF720
:1034E00087FEE1880098B1F5007F2CD07101B0FB18
:1034F000F1F000EB8000A1684000B0FBF1F0401D4E
:1035000080B20A21B0FBF1F000F00101401A4FF641
:10351000FF72C0F34F0002EA0121821EFE2A01D38E
:1035200002200021E288084302432A84208861881F
:10353000A2890843A18811430843384340F400603E
:10354000A88305B0F0BD000AD3E7002101804180C7
:103550008180C180018141818181C18107210182F6
:1035600070470021018041808180C18002228260F9
:10357000818170470029018802D041F0400101E0BB
:1035800021F04001018070470029818B02D041F475
:10359000806101E021F48061818370470909012382
:1035A0008B40002A828899B201D00A4300E08A4306
:1035B00082807047002A828801D00A4300E08A4353
:1035C000828070478181704780897047A1F57E4273
:1035D0000188FF3A02D041F4807101E021F480714A
:1035E000018070470029818802D041F0040101E088
:1035F00021F0040181807047028822F40062028079
:1036000002880A4302807047018841F4805101809A
:1036100070470029018802D041F4005101E021F4F3
:10362000005101807047012901D0008B7047808ACA
:103630007047008A7047B1F5804F018803D021F4AC
:1036400080410180704741F48041FAE70246002042
:1036500012890A4200D001207047C9430181704796
:1036600030B501F00F030125024605FA03F40020EE
:10367000A3B2090905FA01F49188A4B21289214084
:103680001A4202D0002900D0012030BD01F00F0203
:1036900001219140C9430181704700000030014081
:1036A00000380040003C0040FA4910B5884202D181
:1036B0000121C41443E0B0F1804F09D0F64988429B
:1036C0000DD101210220FFF7F9FD002102202DE09C
:1036D00001210846FFF7F2FD0021012026E0EF4915
:1036E000884206D101210420FFF7E8FD00210420D3
:1036F0001CE0EB49884206D101210820FFF7DEFDDE
:103700000021082012E0E749884206D1012110205B
:10371000FFF7D4FD0021102008E0E349884209D1D9
:1037200001212020FFF7CAFD00212020BDE8104024
:10373000FFF7C4BDDD4988420AD101214414204667
:10374000FFF7B3FD2046BDE810400021FFF7ADBDF7
:1037500010BD028802F08F020280CA884B881A438B
:1037600003881A4302808A8882850A880285C94AAA
:10377000904202D0CD4A904201D1097A01860121BE
:103780008182704730B5028C22F001020284058CE0
:103790008388028B0C8822F07302144325F0020206
:1037A0000D8915434A882A43BA4DA84202D0BF4D1D
:1037B000A8420DD122F008054A8923F403432A4385
:1037C00022F004058A882A438D891D43CB892B4327
:1037D00083800483C9888186028430BD70B5028CE1
:1037E00022F010020284028C8388048B0D8824F45A
:1037F000E6464FF6FF7404EA052535430E8922F0AC
:10380000200204EA061616434A8804EA02123243EA
:10381000A04EB04202D0A54EB04215D122F0800693
:103820004A8923F40C4304EA0212324322F0400690
:103830008A8804EA021232438E8904EA86061E430D
:10384000CB8904EA8303334383800583C9880187D6
:10385000028470BD70B5028C22F480720284028CE6
:103860008388848B0D8824F0730425430E894FF6DA
:10387000FF7422F4007204EA062616434A8804EA1A
:1038800002223243834EB04202D0884EB04215D15C
:1038900022F400664A8923F4304304EA02223243C8
:1038A00022F480668A8804EA022232438E8904EA7E
:1038B00006161E43CB8904EA0313334383808583B2
:1038C000C9888187028470BD70B5028C22F4805251
:1038D0000284058C8288838B0C8823F4E6464FF69D
:1038E000FF7303EA0424344325F400560D8903EAE8
:1038F000053535434E8803EA06362E43654DA8420A
:1039000002D06A4DA84205D1C2F30D058A8903EAA7
:1039100082122A4382808483C988A0F840100684DA
:1039200070BD828B22F440628283828B4FF6FF73DC
:1039300003EA01210A4382837047828B22F00C0242
:103940008283828B0A4382837047028B22F4406217
:103950000283028B4FF6FF7303EA01210A430283BD
:103960007047F0B5048C24F010040484078B068C97
:103970004FF6FF7404EA011527F4734704EA033194
:10398000394304EA02220A4326F02001294341F088
:10399000100102830184F0BD028B22F00C0202832D
:1039A000028B0A43028370472DE9F0410C460E88D2
:1039B0004988A288238905460EB3042E26D0082EF6
:1039C0002E8C4FF6FF7028D026F480562E84AF8BB5
:1039D0002E8C00EA022200EA013127F473473A43B1
:1039E00000EA0330104326F400520A4342F48051A7
:1039F000A8832984E1882846BDE8F04191E700F0DA
:103A0000D2FAE1882846BDE8F041C5E7FFF7A9FFF3
:103A1000E1882846BDE8F04197E726F480762E84B9
:103A2000AF8B2E8C00EA012100EA0310104327F02F
:103A3000F307384326F400720A4342F48071A883E6
:103A40002984E1882846BDE8F04176E72DE9F04178
:103A50000C46002649880746012501B90226A2889E
:103A6000012A00D1022520882389002838461FD04A
:103A7000FFF777FFE1883846FFF767FF23892A467B
:103A80003146384600F08FFAE1883846BDE8F0410B
:103A900082E70000002C01400004004000080040C4
:103AA000000C0040001000400014004000340140B1
:103AB00000F079FAE1883846FFF76EFF23892A463D
:103AC00031463846FFF74DFFE1883846BDE8F04102
:103AD0003BE710B50A884B88CC881A438B88234370
:103AE0001A430B891A434B8989891A430A43A0F860
:103AF000442010BD4FF6FF71818000210180C180FC
:103B00004180017270470021018041808180C18025
:103B1000018141818181C181704700210180418003
:103B200001228280C1800181704700210180418093
:103B30008180C18001814181818170470029018894
:103B400002D041F0010102E040F2FE32114001805A
:103B50007047002930F8441F02D041F4004101E0D1
:103B6000C1F30E0101807047002A828901D00A4307
:103B700000E08A4382817047818270471143A0F838
:103B800048107047002A828901D00A4300E08A4326
:103B900082817047018921F0070101817047028904
:103BA00022F070020A430281704700B50346FFF716
:103BB000F6FF188940F00700188100BD70B5164661
:103BC0000D46602904464FF0010231460AD000F04C
:103BD000EAF929462046FFF7E2FF208940F0070076
:103BE000208170BDFFF7BDFEF3E730B504894FF6C5
:103BF000FF7505EA03231343E4B20B432343038118
:103C000030BD10B50446FFF7F0FF208940F0770083
:103C1000208110BD10B50446FFF7E7FF208940F46E
:103C20008040208110BD018582827047028840F269
:103C30008F331A400A430280704770B50589048BA0
:103C4000068C25F007050D434FF6FC410C4040F271
:103C500001110C434FF6FF7101EA031126F0220611
:103C60001143314305810483018470BD028B22F02E
:103C700070020A4302837047028B4FF6FF7322F4EF
:103C8000E04203EA0121114301837047828B22F055
:103C900070020A4382837047828B4FF6FF7322F4CF
:103CA000E04203EA01211143818370470029018822
:103CB00002D041F0800102E040F27F3211400180E9
:103CC00070470029818802D041F0040101E021F011
:103CD0000401818070470029818802D041F00801E9
:103CE00001E021F00801818070470029818802D01D
:103CF00041F0010101E021F0010181807047028B58
:103D000022F008020A4302837047028B4FF6FF73CA
:103D100022F4006203EA0121114301837047828B80
:103D200022F008020A4382837047828B4FF6FF73AA
:103D300022F4006203EA0121114381837047028B60
:103D400022F004020A4302837047028B4FF6FF738E
:103D500022F4806203EA0121114301837047828BC0
:103D600022F004020A4382837047828B4FF6FF736E
:103D700022F4806203EA0121114381837047028BA0
:103D800022F080020A4302837047028B4FF6FF73D2
:103D9000C2F30E0203EA0121114301837047828BB3
:103DA00022F080020A4382837047828B4FF6FF73B2
:103DB000C2F30E0203EA0121114381837047028C92
:103DC00022F002020A4302847047028C22F00802A9
:103DD0000A4302847047028C4FF6FF7322F02002E0
:103DE00003EA0111114301847047028C4FF6FF73FF
:103DF00022F0800203EA0111114301847047028C12
:103E00004FF6FF7322F4007203EA0121114301848B
:103E10007047028C4FF6FF7322F4006203EA01211F
:103E2000114301847047028C4FF6FF7322F4005255
:103E300003EA013111430184704710B50123048C5A
:103E40008B409C430484038C8A401343038410BD3D
:103E500010B50423048C8B409C430484038C8A405B
:103E60001343038410BD30B50124058C00F1180301
:103E70008C40A543058491B1082910D0091FC1F3D6
:103E80004E001844016848F6FF731940016001684C
:103E90004FF6FF7303EA02221143016030BD03EBCA
:103EA000510001684FF68F73194001600168F3E714
:103EB0000029018802D041F0020102E040F2FD3207
:103EC0001140018070470029018802D041F00401AF
:103ED00002E040F2FB3211400180704700298188E6
:103EE00002D041F0800101E021F080018180704723
:103EF000028840F2F7331A40028002880A430280A7
:103F00007047828822F07002828082880A43828011
:103F10007047028922F00702028102890A43028166
:103F20007047028922F08002028102890A430281DD
:103F3000704781847047818570478186704701870B
:103F4000704781877047A0F8401070470288D2B24E
:103F5000028002880A4302807047808E7047008F7B
:103F60007047808F7047B0F840007047808C704772
:103F7000008D704702460020128A0A4200D00120BC
:103F80007047C9430182704702460020138A928914
:103F90000B4202EA010202D0002A00D00120704741
:103FA000C9430182704770B5048C24F00104048475
:103FB000058B048C4FF6FF7606EA0313134325F0B6
:103FC000F3052B4324F002020A4342F0010103836C
:103FD000018470BDB24910B588420AD101218C0319
:103FE0002046FFF762F92046BDE810400021FFF7A8
:103FF0005CB9AC49884202D101214C0410E0AA49C5
:10400000884202D101218C040AE0A849884202D1E9
:104010000121CC0404E0A64988420AD101210C0503
:104020002046FFF74BF92046BDE810400021FFF77E
:1040300045B910BD30B50446008A85B00D464CF632
:10404000FF710840E98801432182A0894EF6F311EF
:104050000840A9882A8911436A8902431143A18132
:10406000A08A4FF6FF410840A9890143A182684612
:10407000FFF7BEF88A48844201D1039800E0029815
:10408000642200EBC00101EB001029686FF01805F5
:104090008900B0FBF1F0B0FBF2F109010B096B43B1
:1040A00000EB8300322303EB0010B0FBF2F000F0D2
:1040B0000F000843208105B030BD4FF41651016058
:1040C00000218180C18001810C2242818181704761
:1040D00010B5028A4FF2FF031A400B884C88234325
:1040E0008C88C9880C4323431343038210BD0021ED
:1040F000018041808180C18070470029818902D080
:1041000041F4005101E021F400518181704710B564
:10411000C1F3421301F01F040121A140012B07D07C
:10412000022B07D01430002A026805D00A4304E0AD
:104130000C30F8E71030F6E78A43026010BD002A21
:10414000828A01D00A4300E08A4382827047028A51
:1041500022F00F020282028A0A4302827047828999
:1041600022F40062828182890A4382817047002999
:10417000818902D041F0020101E021F00201818138
:104180007047028A22F020020282028A0A430282D7
:1041900070470029018A02D041F4804101E021F4F6
:1041A000804101827047C1F3080181807047808897
:1041B000C0F308007047818941F001018181704797
:1041C000028BD2B20283028B42EA01210183704743
:1041D000028B02F47F420283028B0A430283704700
:1041E0000029818A02D041F0200101E021F0200164
:1041F000818270470029818A02D041F0100101E0DC
:1042000021F01001818270470029818A02D041F09B
:10421000080101E021F0080181827047828A22F0C2
:1042200004028282828A0A43828270470029818A3C
:1042300002D041F0020101E021F0020181827047C9
:104240000246002012880A4200D001207047C9436C
:104250000180704770B501F01F0501260024C1F3ED
:10426000421306FA05F2012B0FD0022B0FD0838ADE
:104270004FEA11210088134206FA01F600EA06000F
:1042800001D000B10124204670BD8389F0E7038A84
:10429000EEE70A0A01219140C943018070470000FE
:1042A000003801400044004000480040004C0040FD
:1042B000005000402749084327490860704770B5FF
:1042C0000F23C278017801244FF0E025DAB1224AA9
:1042D000126802F4E062C2F5E062120AC2F104065A
:1042E000D3404278B24086781E401C4B16433201C0
:1042F000CA54007800F01F018C40400905EB800093
:10430000C0F8004170BD01F01F008440480905EB72
:104310008000C0F8804170BD114A114001430E4831
:10432000001F016070470C4A121D0029116801D05E
:10433000014300E08143116070474FF0E021042801
:10434000086903D020F004000861704740F00400C1
:10435000FAE700000000FA050CED00E000E400E0E0
:1043600080FFFF1F374900200860091D0860091DF4
:104370000860091D086033493348143108607047EC
:1043800030B5304A8379016853B313688B431360A7
:10439000111D0B680468A3430B60017911440B687D
:1043A000046823430B60274B083319680468A14352
:1043B00019601C1D21680568A943216041791029F5
:1043C00005D011440A68006802430A6030BD1968CC
:1043D000026811431960216800680143216030BD03
:1043E0000079104402688A43026030BD00210160F8
:1043F00001710C22427181717047124910310A68B3
:1044000002430A60704701460E4A002014321268C7
:104410000A4200D0012070470A49143108607047F1
:10442000084A014600201268064B0A4014331B68F4
:104430000B4202D0002A00D00120704701491431FC
:104440000860704700040140FFFF0F0010B5012114
:104450000C072046FEF732FF2046BDE81040002141
:10446000FEF72CBF1F49086270471E49086170475C
:104470001D4A116821F0E00101431160704719499C
:10448000A03108607047184B1A6822F003020243FB
:104490001A601648026842F004020260012901D045
:1044A00020BF704730BF70470F48016841F00401DA
:1044B0000160016841F0020101600C48016841F0AF
:1044C0000401016030BF7047074A0146002052686E
:1044D0000A4200D00120704703490A6842EA80007E
:1044E0000860704700000E420070004010ED00E0D0
:1044F0002DE9F05F0546002092469B468846064619
:10450000814640241BE0284641464746224600F0AB
:10451000CEF853465A46C01A914110D31146184658
:10452000224600F0B5F82D1A67EB01084F462246E7
:104530000120002100F0ACF817EB00094E41201ECD
:10454000A4F10104DFDC484631462A464346BDE873
:10455000F09F2DE9FE4F81EA030404F0004421F0AE
:10456000004100944FF0000B23F0004350EA010497
:1045700002D052EA030404D10020014603B0BDE892
:10458000F08FC3F30A54C1F30A552C44A4F2F33458
:104590000194A0FB0254C1F3130141F48011C3F351
:1045A000130343F4801301FB024400FB034E840A0F
:1045B000970A44EA815447EA8357A4FB07680295A7
:1045C0008D0A05FB07854FEA932C04FB0C54270545
:1045D000029D4FEA065847EA1637B5EB08056EEB21
:1045E000070C870E920E47EA811742EA8312A7FB57
:1045F0000201B6EB0B0164EB00042B0D43EA0C3314
:104600005E1844EB1C50DA465146E7FB0201C5F345
:1046100013044FEA0B3343EA14534FEA0432019C6C
:1046200043EA0603A4F10C040294009CCDE900B413
:1046300000F090F8A2E70EB5C10F80EAE0700844E0
:10464000CA07002140F233438DE80E000A460B46AC
:1046500000F080F803B000BD01F0004330B421F059
:10466000004150EA010206D00A0DA2F56072C1F3C2
:104670001301002A02DC30BC00207047440F44EADA
:10468000C104C100E01830BC00EBC25000F01FB8FC
:10469000202A04DB203A00FA02F100207047914002
:1046A000C2F1200320FA03F3194390407047202AF7
:1046B00004DB203A21FA02F00021704721FA02F3CC
:1046C000D040C2F1200291400843194670470029AA
:1046D000A8BF7047401C490008BF20F00100704788
:1046E00010B4B0FA80FC00FA0CF050EA010404BFE8
:1046F00010BC704749B1CCF1200421FA04F411FA3E
:104700000CF118BF012121430843A3EB0C01CB1D81
:104710000106000A002BBEBF002010BC704700EB52
:10472000C35010440029A4BF10BC7047401C49006E
:1047300008BF20F0010010BC704710B5002B08DA4C
:10474000401C41F1000192185B411A4301D120F055
:10475000010010BD2DE9F04D92469B4611B1B1FA12
:1047600081F202E0B0FA80F220329046FFF790FF2B
:1047700004460F4640EA0A0041EA0B0153465A46F6
:10478000084303D120463946BDE8F08D114653EA6F
:10479000010015D0C8F140025046FFF788FF0546DA
:1047A0000E46504659464246FFF772FF084301D075
:1047B000012000E00020054346EAE0762C43374321
:1047C0000A984FEA4453A0EB08004FEAD4240A3079
:1047D0004FF0000244EA47544FEAD72502D50020A3
:1047E0000146D1E7010510196941DDE908450019C5
:1047F0006941BDE8F04DA0E7064C074D06E0E068D2
:1048000040F0010394E8070098471034AC42F6D317
:10481000FBF770FC4C4800086C48000802E008C830
:10482000121F08C1002AFAD170477047002001E02A
:1048300001C1121F002AFBD17047020405080A10AB
:104840001419283264C80102030000006C480008F3
:1048500000000020880000001C480008F448000800
:1048600088000020D83E00002C480008000000000E
:1048700002000102FFFFFFFFFFFF14000000080716
:104880000000000000000000000000000000000028
:1048900009000000282300000000000002080502B3
:1048A0000000000001010000000000000000000006
:1048B0000000000000000000000000000C000000EC
:1048C00000000000FFFFFFFFFFFF000000000000EE
:1048D00000000000000000000000000000000000D8
:1048E00002040608000000000102030401020304A0
:0448F00006070809A6
:04000005080000ED02
:00000001FF
