:020000040800F2
:1000000098240020ED010008090200080B020008F6
:100010000D0200080F020008110200080000000095
:1000200000000000000000000000000013020008B3
:10003000150200080000000017020008190200085D
:100040001B0200081D0200081F0200082102000810
:1000500023020008250200082702000829020008E0
:100060002B0200082D0200082F02000831020008B0
:100070004F050008330200080B0500083502000890
:10008000370200084D050008390200083B0200084D
:10009000A90200083D0200083F02000841020008D2
:1000A0004302000845020008470200084902000810
:1000B0004B0200084D020008C10200084F02000870
:1000C00051020008530200085502000857020008B8
:1000D0005902000881020008A5020008A7020008D2
:1000E0005B0200085D0200085F020008DFF80CD028
:1000F00001F0C0FE00480047E702000898240020F5
:100100000CB50022019200923448016841F480311C
:1001100001604FF4A063016801F40031009101997E
:10012000491C0191009911B901999942F3D10168D3
:10013000890302D50121009100E000920099012974
:1001400000D0FEE726490A6842F010020A600A68F9
:1001500022F003020A600A6842F002020A60416863
:10016000416041684160416841F48061416041689B
:1001700021F47C114160416841F4E811416001685B
:1001800041F08071016001688901FCD5416821F06E
:1001900003014160416841F0020141604168C1F3DF
:1001A00081010229FAD10CBDAAE70C48016841F08F
:1001B0000101016041680B4A1140416001680A4A2F
:1001C00011400160016821F480210160416821F43F
:1001D000FE0141604FF41F018160E5E7001002401D
:1001E000002002400000FFF8FFFFF6FE0548004730
:1001F000FEE7FEE7FEE7FEE7FEE7FEE7FEE7FEE7D7
:10020000FEE7FEE7ED0000087047FEE7FEE7FEE7C9
:10021000FEE77047704770477047704770477047F8
:100220007047704770477047704770477047704716
:100230007047704770477047704770477047704706
:1002400070477047704770477047704770477047F6
:1002500070477047704770477047704770477047E6
:1002600070477047704770477047704770477047D6
:1002700070477047704770477047704770477047C6
:1002800010B52D4C40F22551204600F0DDFF00282E
:1002900007D0204600F07CFFBDE81040C0B200F05F
:1002A000E5B910BD7047704700B585B06A460021BA
:1002B000224801F0C3FC684600F07FF905B000BD9C
:1002C000704710B5FFF771FF012144F23C0001F0C7
:1002D0006AF90121480601F071F90121BDE81040D9
:1002E000084601F055B9FFF7ECFF4FF4E131124831
:1002F00000F05FF800F024F800F0AAFA00F0C2FC69
:1003000000F016FB4FF4C06000F0D0FF00F035F8AD
:1003100000F0BBFA002400F069FAE00308D1A00362
:1003200003D0032000F0CBFC02E0042000F0C7FC67
:10033000641CF0E7FEE70000003801400064004064
:1003400038B54FF40070ADF8000018208DF80300A8
:1003500003248DF802407F4D6946284600F02DFDAC
:100360002915ADF8001004218DF803108DF8024016
:100370006946284600F021FD38BD38B525208DF8A6
:10038000000001248DF801408DF802408DF80340F3
:10039000684600F090FF0E208DF800008DF80140B7
:1003A00003208DF802008DF80340684600F083FFBB
:1003B00038BD30B587B005460C46284600F0D8FD5C
:1003C00005A800F07AFE4FF40072ADF8182005A9D8
:1003D000284600F063FE01A800F055FE019401A933
:1003E000284600F00DFE40F225542146284600F034
:1003F00027FF01222146284600F071FE01212846F0
:1004000000F061FE07B030BD7FB505460C462846BA
:1004100000F0AEFD684600F036FE009469462846BE
:1004200000F0EEFD40F225542146284600F008FF7A
:1004300001222146284600F052FE0121284600F004
:1004400042FE7FBD2DE9F04105460F460024424E95
:100450000AE04021304600F0ECFE0028F9D0295D8A
:10046000304600F091FE641CBC42F2D3402130467D
:1004700000F0DFFE0028F9D0BDE8F081704770473A
:1004800070477047F0B58BB007460C4616461D46C0
:10049000384601F0E3F8684601F073F900940196DC
:1004A00010210291039580210591890109916946E6
:1004B000384601F049F90121384601F06FF901226F
:1004C0000A21384601F076F90BB0F0BD70B515463B
:1004D000002916D0214C2278002A12D10122227044
:1004E0000B461D490246091D1D48FFF7CBFF01229F
:1004F0008021194800F00EFE002D02D0207800283F
:10050000FCD170BD70477047704770B500244FF440
:100510000055284601F076F918B1284601F082F915
:1005200001244FF40045284601F06CF918B1284623
:1005300001F078F90124002C07D000228021064820
:1005400000F0E8FD05490020087070BD7047704755
:100550007047000000080140003801400000002002
:100560004400024070B504460498AA25257055251C
:100570006570A270E070002204E0A6189D5C3571E1
:10058000521CD2B28242F8D3002503E0A0180571B4
:10059000521CD2B2082AF9D304F10C0000F018FB67
:1005A0000E21A01C00F03DFB81B204F1100000F010
:1005B00023FBA520A074E57470BDF8B5837A002BE9
:1005C00035D09D4D6978AC78A14202D1E9780029F7
:1005D0002DD19A4A017A127802F001060E4326D0F4
:1005E000042901D1960722D5467A022E01D152075D
:1005F0001DD509B1012200E00022022E01D142F0F6
:100600000202A9B14168009304EB84038C4C04EB13
:10061000830400F10B032046FFF7A4FFA878401CD9
:10062000C0B2A8706978814201D10120E870F8BD9C
:100630000168E8E730B502467F4D6C78A8788442BF
:1006400001D1E87880B17E4904EB840001EB8001A0
:1006500000200B5C1354401CC0B21428F9D3641C56
:100660006C700021E97030BD002030BD10B5724BB8
:100670009A88D9888A4202D11C78002C14D1714CF6
:100680006054142902D20C4484F8000840F2FF7030
:10069000814202D2491CD98001E00020D880D8884C
:1006A000824201D10120187010BD2DE9FC5F074680
:1006B000DFF88481B8F80600B8F80450401B06B291
:1006C00098F80000304309D0002E02DC06F50066E1
:1006D00036B2142E04D20020BDE8FC9F0020FBE7B8
:1006E0004FF0000AD146143E6EE05648415DAA29FB
:1006F00063D14419607855285FD1A07CA5285CD1CE
:1007000004F1100000F07DFA83460E21A01C00F0D9
:1007100088FA80B2834550D1A078FF2803D0C00763
:100720002BD004202AE0A01D00F06BFA01B2E07A81
:10073000A27ACDE90020637A227A207900F038F994
:1007400000203D4A08322118131809791973401CFA
:1007500000B20428F7DB0E21901C00F062FA81B28F
:100760003548183000F048FA1435C5F30A00A8F8E7
:10077000040088F800900220AEE700203872A078CC
:1007800000F002007872E078B872002021183A1860
:100790000979D172401C00B20828F7DB04F10C0083
:1007A00000F01FFA786038601435C5F30A00A8F825
:1007B000040088F8009001208EE76D1CC5F30A053F
:1007C0000AF1010A0FFA8AFAB2458ED9A8F8045044
:1007D00088F8009000207FE71B480078002801D0AF
:1007E0000120704700207047FFF770BE00B585B04C
:1007F000FFF7F2FF40B91548FFF71CFF014619B19A
:1008000000221248FFF7F0FF6846FFF74EFF01286D
:100810000DD0022809D1FFF7DFFF0028FBD10648E1
:10082000002214210830FFF7DFFF05B000BD684645
:1008300000F0F0F8F9E7000002000020200000209E
:10084000500000205014002000000020641C0020F4
:1008500038B54FF40060ADF8000048208DF8030073
:1008600003248DF80240D54D6946284600F0A5FACC
:10087000A914ADF8001018218DF803108DF802406E
:100880006946284600F099FA38BD08B514208DF85D
:10089000000001208DF8010002218DF802108DF872
:1008A0000300684600F007FD08BD1FB58DF80A007B
:1008B00000208DF80B0001238DF80C304FF6FF74EB
:1008C00004EAC101ADF800100421ADF8021004EAF9
:1008D000C201ADF804100621ADF80610ADF808000D
:1008E0008DF80D30684601F049F81FBDB448017815
:1008F0000907002901DA002201E041F6FF72416890
:100900000020D2E710B500210022AE4C4B1E01EBB7
:10091000411024F8303004EBC000E83020F8E63C09
:10092000027742778277C277491C0429EFDB10BD3A
:1009300010B5A54C204600F085FF012000F098F985
:100940009F4920460E3100F097FF012801D000207A
:1009500010BDFFF7D7FFFFF7C9FF01220221204694
:1009600001F092F8012000F0A0F9012010BD002153
:10097000964A535C834201D101207047491CC9B299
:100980000C29F6D30020704710B50446002C0DD07A
:100990002046FFF7ECFF48B189480E300178A142AC
:1009A00002D00480FFF7C4FF012010BD002010BD5D
:1009B0002DE9F0410546DDE906070024C1F30A06EA
:1009C000002A00D008240BB144F0010408B144F01F
:1009D00002040FB144F0040425B12846FFF7C7FF15
:1009E00000B90025764800F10E010278A24208D134
:1009F000828812B2B24204D1002D09D00A78AA42EC
:100A000006D00470466005B10D80BDE8F0418FE767
:100A1000BDE8F0812DE9F0470746387A002829D053
:100A2000786806140024DFF89881DFF89CA108F1AB
:100A3000080838F91400B0421FD100254FF40029EE
:100A40002146504601F08BF8012802D06D1C4D451F
:100A5000F6D34D4509D32146504601F0C0F8584819
:100A60004178491C4170FFF763FF4FF0FF3028F8D1
:100A7000140006E03868060ED4E7641CE4B2022CC9
:100A8000D7D9012000F01BF93946504601F006F88D
:100A9000042801D028F81060BDE8F08770B505146F
:100AA00003B20020474C00EB401634F936609E42FA
:100AB00002D0401C0428F6DB042809DB002000EBF0
:100AC000401634F93660761C0DD0401C0428F6DB45
:100AD000042826DA00EB401004EBC0004580002318
:100AE00080F807311BE000EB401624F83630EFE7C2
:100AF00090F80641002C14D190F80441CE5C651C9E
:100B0000044480F80451267190F8044190F805518E
:100B1000AC4202D1012480F806415B1CDBB2934257
:100B2000E6D370BD2DE9F0470024DFF898C0A04659
:100B30004FF0010904EB44173CF937506E1C1CD0F0
:100B400020F814500CEBC7056E8821F8146095F856
:100B5000056195F804A1564523D195F806A1BAF18F
:100B6000000F0DD085F80681771C85F80571354496
:100B70002D79155503F804901BE003F8048018E064
:100B800003F8048095F80761761CF6B285F80761D2
:100B90000A2E0ED94FF0FF362CF8376085F8078102
:100BA00007E0771C85F8057135442D79155503F854
:100BB0000490641C042CBDDB6EE7000000080140BB
:100BC00020000020781C002000640040B61E0008B1
:100BD0000A0E02700A0C42700A0A8270C170042068
:100BE0007047C178027841EA026142788078120445
:100BF00042EA0020084370470A0A0270417002204E
:100C000070474178007841EA0020704710B50346EC
:100C10000020002202E09C5C6040521C8A42FAD311
:100C200010BD10B503460020002202E09C5C204469
:100C3000521C8A42FAD310BD10B50023052901D2F7
:100C4000FF2010BD0022891E03E0845C6340521C1B
:100C5000D2B28A42F9DB815C994201D0012010BDF9
:100C600010444078162801D0022010BD002010BD8D
:100C7000012801D0002804D14FF40071184800F079
:100C800009B9704708B54FF40070ADF800001420A2
:100C90008DF8030003208DF802006946104800F02B
:100CA0008CF80020FFF7E4FF08BD012801D0401CAC
:100CB00004D14FF400710A4800F0EEB87047411EAD
:100CC00007290BD801228A40D1B2064A13784B403B
:100CD000137012780A4200D0E7E7C9E770470000B6
:100CE000000C01403A00002010B59749884209D114
:100CF0000121042000F06DFC0021BDE8104004201B
:100D000000F067BC9149884209D10121082000F018
:100D100060FC0021BDE81040082000F05ABC8C495E
:100D2000884209D10121102000F053FC0021BDE8C8
:100D30001040102000F04DBC8649884209D10121A5
:100D4000202000F046FC0021BDE81040202000F0EB
:100D500040BC8149884209D10121402000F039FC82
:100D60000021BDE81040402000F033BC7B498842A0
:100D700009D10121802000F02CFC0021BDE81040A9
:100D8000802000F026BC764988420AD184150121D2
:100D9000204600F01EFC2046BDE81040002100F077
:100DA00018BC10BD10B50121084600F012FC00214E
:100DB000BDE81040012000F00CBC2DE9F0410022FC
:100DC000CC7804F00F03E406002C01DA8C7823437E
:100DD0000C780F274FF0010CE4B105680CFA02F40F
:100DE0000E882640A64211D1960007FA06F825EA99
:100DF000080503FA06F848EA0505CE78282E02D041
:100E0000482E02D002E0446100E00461521C082A2E
:100E1000E4D305600A88FF2A1ED94568002202F142
:100E200008060CFA06F40E882640A64210D1960059
:100E300007FA06F825EA080503FA06F848EA050560
:100E4000CE78282E00D14461CE78482E00D104619E
:100E5000521C082AE3D34560BDE8F0814FF6FF71CC
:100E60000180022181700421C17070470246002078
:100E700092680A4200D001207047806880B27047B3
:100E800002460020D2680A4200D001207047C068A4
:100E900080B270470161704741617047002A01D0FC
:100EA0000161704741617047C160704741F4803211
:100EB00082618161826181698069704710B5294BC7
:100EC0001A684FF68074224042EA00100843186006
:100ED00010BD2549C8617047F0B5224D6B68C0F35D
:100EE0000342440D260184B2C0F30157B440032FDE
:100EF00007D0C0020CD503209040834343F07062BA
:100F000009E023F07062686820F07060686002E0B9
:100F1000A34343F0706201B122436A60F0BD10B593
:100F20008A07120F0F23934021F003040D49214437
:100F30008C689C438C608B68904003438B6010BD31
:100F40000A4908607047000000080140000C014099
:100F5000001001400014014000180140001C014035
:100F6000002001400000014000002042DC0020423F
:100F700010B5C94988420AD101218C03204600F0EE
:100F800028FB2046BDE81040002100F022BBC349E9
:100F900088420AD101214C04204600F025FB20465E
:100FA000BDE81040002100F01FBBBD4988420AD1B6
:100FB00001218C04204600F017FB2046BDE81040BC
:100FC000002100F011BBB74988420AD10121CC04AD
:100FD000204600F009FB2046BDE81040002100F04B
:100FE00003BBB14988420AD101210C05204600F01B
:100FF000FBFA2046BDE81040002100F0F5BA10BD14
:1010000030B585B004460D46208A4CF6FF71084085
:10101000E98801432182A0894EF6F3110840A9888E
:101020002A8911436A8902431143A181A08A4FF69C
:10103000FF410840A9890143A182684600F05BFA9C
:101040009548844201D1039800E0029800EBC0016A
:1010500001EB001029688900B0FBF1F06422B0FBBD
:10106000F2F109010B096FF018056B4300EB8300E7
:10107000322303EB0010B0FBF2F000F00F00084346
:10108000208105B030BD4FF41651016000218180F0
:10109000C18001810C2242818181704710B5038A91
:1010A0004FF2FF0213400A884C8822438C88C9887B
:1010B0000C4322431A43028210BD0021018041806B
:1010C0008180C1807047002904D0818941F400519A
:1010D00081817047818921F400518181704710B569
:1010E00040F66A13C1F3421301F01F040121A1402D
:1010F000012B07D0022B07D014303AB102680A4303
:10110000026010BD0C30F8E71030F6E702688A4341
:10111000026010BD002A03D0828A0A43828270478F
:10112000828A8A4382827047028A22F00F020282F8
:10113000028A0A4302827047828922F40062828115
:1011400082890A4382817047002904D0818941F055
:10115000020181817047818921F0020181817047FC
:10116000028A22F020020282028A0A430282704727
:10117000002904D0018A41F4804101827047018A2C
:1011800021F4804101827047C1F3080181807047DA
:101190008088C0F308007047818941F00101818196
:1011A0007047028BD2B20283028B42EA0121018393
:1011B0007047028B02F47F420283028B0A43028350
:1011C0007047002904D0818A41F020018182704754
:1011D000818A21F0200181827047002904D0818A10
:1011E00041F0100181827047818A21F010018182D3
:1011F0007047002904D0818A41F00801818270473C
:10120000818A21F0080181827047828A22F00402DB
:101210008282828A0A4382827047002904D0818AAE
:1012200041F0020181827047818A21F002018182AE
:1012300070470246002012880A4200D00120704701
:101240008A05C9430180704770B5002440F66A12D0
:10125000C1F3421301F01F05012606FA05F2012B26
:101260000CD0022B0DD0838A1340090A8E400088CF
:1012700030400BB100B10124204670BD838913407A
:10128000F3E7038A1340F0E740F66A120A0A0121E5
:101290009140C9430180704700380140004400403C
:1012A00000480040004C00400050004029490843DD
:1012B000294908607047F0B50F23C27801260178EC
:1012C0004FF0E027002A1BD0234A126802F4E062A4
:1012D000C2F5E062120AC2F10404D3404578A54089
:1012E00082781A402A4312011C4BCA54007800F03D
:1012F0001F018E40400907EB8000C0F80061F0BD7F
:1013000001F01F008640480907EB8000C0F88061AB
:10131000F0BD134A114001430F48001F01607047A0
:101320000D4A121D002903D0116801431160704756
:1013300011688143116070474FF0E021042804D008
:10134000086920F0040008617047086940F0040053
:10135000086170470000FA050CED00E000E400E0D1
:1013600080FFFF1FB348016841F00101016041683F
:10137000B14A114041600168B04A11400160016802
:1013800021F480210160416821F4FE0141604FF4A5
:101390001F0181607047A7490A6822F480320A6001
:1013A0000A6822F480220A60B0F5803F07D0B0F5C9
:1013B000802F03D1086840F4A020086070470868B7
:1013C00040F4803008607047034600205909994A6C
:1013D00001290AD002290AD0516A03F01F02012311
:1013E00093400B4200D0012070471168F5E7116A65
:1013F000F3E718B5002000904FF4A0643120FFF708
:10140000E3FF0099491C00910099A14201D00028F6
:10141000F4D03120FFF7D8FF08B1012018BD00201B
:1014200018BD844A116821F0F80141EAC00010603B
:1014300070478349086070477E4B5A6822F47C12DB
:1014400008431043586070477D4908667047794AE1
:10145000516821F0030101435160704775484068AD
:1014600000F00C007047734A516821F0F00101430D
:10147000516070476F4A516821F4E0610143516047
:1014800070476C4A516821F4605141EAC0005060D5
:101490007047684A002903D0517A0143517270475E
:1014A000517A814351727047664908607047614ABA
:1014B000516821F440410143516070476249002264
:1014C0000A7001F82029012805D0042802D105203E
:1014D00081F820007047012081F8200070475B49A7
:1014E0000860704753490A6A02430A6270475749C5
:1014F00044390860704710B54E4A516801F00C013C
:10150000534B002927D0042927D0082927D003606E
:10151000516801F0F00109094E4B5C5C0168E14043
:101520004160546804F4E064240A1C5D21FA04F468
:101530008460546804F46054E40A1B5DD940C160BF
:10154000526802F44042920B424B1B1F9A5CB1FB63
:10155000F2F1016110BD0360DAE70360D8E751687A
:1015600001F47011536803F48033022404EB9141B9
:1015700033B153689B0307D5374B59430160C7E725
:10158000354B59430160C3E7314B59430160BFE715
:10159000284A002903D051690143516170475169BC
:1015A000814351617047234A002903D09169014367
:1015B0009161704791698143916170471D4A00298B
:1015C00003D0D1690143D1617047D1698143D161B1
:1015D0007047184A002903D0D1680143D160704791
:1015E000D1688143D1607047124A002903D0116944
:1015F00001431161704711698143116170471349BB
:101600004039086070470E49C86470470949C8717D
:1016100070470848416A41F0807141627047014655
:101620000020044A92680A4200D001207047014914
:1016300088727047001002400000FFF8FFFFF6FEBE
:1016400000004242D8004242201002408004424240
:1016500000127A003F00002000093D00016821F0DF
:10166000010101600021016041608160C160734936
:10167000724A0839904204D1486840F00F0048602F
:1016800070476E4A1432904204D1486840F0F0002E
:1016900048607047694A2832904204D1486840F453
:1016A000706048607047654A3C32904204D1486897
:1016B00040F4704048607047604A5032904204D114
:1016C000486840F47020486070475C4A6432904239
:1016D00004D1486840F4700048607047574A783237
:1016E000904204D1486840F0706048607047544AA6
:1016F000111F904204D1086840F00F000860704745
:101700004F4A1432904204D1086840F0F00008605B
:1017100070474B4A2832904204D1086840F4706008
:1017200008607047464A3C32904204D1086840F451
:10173000704008607047424A50329042FAD10868BF
:1017400040F470200860704730B5026847F6F073C7
:101750009A430C6A8B682343D1E904452C43234305
:101760008C692343CC6923434C6A23438C6A23430B
:1017700013430360CA6842600A6882604968C160B6
:1017800030BD0021016041608160C1600161416143
:101790008161C1610162416281627047002904D0A8
:1017A000016841F0010101607047016821F0010109
:1017B00001607047002A03D002680A430260704744
:1017C00002688A4302607047406880B270470246F0
:1017D0000020D100002903DA19490839096802E01C
:1017E000164908390968114200D001207047C1002C
:1017F000002903DA1249091F086070470F490839A8
:101800004860704702460020D100002903DA0C49E5
:101810000839096802E0094908390968114200D00D
:1018200001207047C100002903DA0549091F08603B
:1018300070470249083948607047000008000240BC
:101840000804024010B5F94988420AD101214C062A
:101850002046FFF7C9FE2046BDE810400021FFF7F3
:10186000C3BE01218C062046FFF7BEFE2046BDE820
:1018700010400021FFF7B8BE10B50022036823F026
:1018800002030360036843F0010303604FF6FF7334
:1018900000E0521C4468E40701D19A42F9D1426841
:1018A000D2073ED08A79012A3DD0026822F0800218
:1018B0000260CA79012A3BD0026822F0400202602D
:1018C0000A7A012A39D0026822F0200202604A7A9C
:1018D000012A37D0026822F0100202608A7A012AB7
:1018E00035D0026822F008020260CA7A012A33D099
:1018F000026822F0040202608A78CC78920742EAF9
:1019000004620C7942EA04424C79098842EA0452A2
:10191000491E0A43C261016821F0010101600021F2
:1019200020E0002010BD026842F080020260C0E7A3
:10193000026842F040020260C2E7026842F0200200
:101940000260C4E7026842F010020260C6E7026863
:1019500042F008020260C8E7026842F00402026036
:10196000CAE7491C4268D20701D09942F9D14068C0
:10197000C00701D0002010BD012010BDF0B5827A53
:1019800001219140AA4B1A6842F001021A60A84C4A
:101990001C3422688A432260A54EA54A057B403646
:1019A0000C32371D002D14D115688D431560458804
:1019B000B0F806C045EA0C4590F80AC046F83C501D
:1019C0000588B0F804C045EA0C4590F80AC047F80D
:1019D0003C50057B012D10D115680D4315604288E0
:1019E000058842EA0542857A46F83520C28885880E
:1019F00042EA0542857A47F835208D4AC57A121D9C
:101A00003DB115680D431560894A0589143225B129
:101A100006E015688D431560F6E715688D4315607F
:101A20000589012D02D115680D431560407B012801
:101A300002D1206808432060186820F00100186077
:101A4000F0BD00218171C171017241728172C17258
:101A50008170C17003210171022141710121018056
:101A6000704773490A6842F001020A600A6843F647
:101A70000E739A430A600A6842EA00200860086808
:101A800020F0010008607047002A03D042690A4331
:101A90004261704742698A434261704730B50246ED
:101AA000002093685B01002B0ADB9068000101D5E0
:101AB000012005E09068C00001D5022000E004206C
:101AC000042840D002EB0012D2F8803103F0010369
:101AD000C2F880310B7ABBB3D2F880414D681C4309
:101AE0004B7A43EAC5031C43C2F880418B7A03F06A
:101AF0000F038B7202F5C072536823F00F0353601B
:101B000053688C7A43EA04035360CB7A8C7B0D7B59
:101B100043EA04634C7B4FEA044444EA052443EA65
:101B200004039360CB7B8C7C43EA04634C7C097C8C
:101B30004FEA044444EA012143EA0103D3601168F7
:101B400041F00101116030BDFFE7D2F880314C7ADD
:101B500023430C8843EA4453C2F88031C6E700228D
:101B6000002904D0012910D002292BD11CE0816862
:101B700001F0010142EA8102816801F00201114392
:101B80008068C0F380620A431CE0816801F48071C0
:101B900042EA9111826802F4007241EA12218068DF
:101BA000C0F3C0620A430DE0816801F4803142EA6B
:101BB0009131826802F4003241EA12418068C0F338
:101BC00000720A432AB1052A05D0072A05D0002051
:101BD000704702207047002070470120704700299D
:101BE00008D001290BD0022903D1816841F40001FA
:101BF00081607047816841F0800181607047816831
:101C000041F40041816070472022002901D0026127
:101C10007047C26070470246002000290AD001299F
:101C200002D1106900F0030070470000006400401A
:101C300000660040D06800F00300F5E710B400EB48
:101C40000113D3F8B04104F004041472002C2FD017
:101C5000D3F8B041E408546003F5D8731C6804F06D
:101C6000020454725C6804F00F0494725C684FEADA
:101C70001424D4749C68D4729C684FEA142414739E
:101C80009C684FEA144454739C684FEA146494733C
:101C9000DC68D473DC684FEA14241474DC684FEAFF
:101CA00014445474DB684FEA1363937410BCABE7BD
:101CB000D3F8B041640D1460CEE7002904D0016868
:101CC00041F480310160AFE7016821F480310160A7
:101CD000AAE70021026822F0010242F0020202603B
:101CE000406800F00300022800D1012108469BE76C
:101CF0004FF6FF710023026822F00202026000E04A
:101D0000491E4268920701D50029F9D14068800731
:101D100000D40123184687E70246002092690A4250
:101D200082D0012080E782698A4382617CE7024693
:101D300000200A4200D0012076E730B4024600209D
:101D40004FF480731C0240293BD014DC07292CD0AF
:101D500009DC04292DD0052923D0062941D190681A
:101D600030BC1946E3E7082927D0202939D110696A
:101D700030BC0821DBE7B1F5806F2AD008DC99423E
:101D800023D0B1F5007F2CD1906930BC0221CEE781
:101D9000A14222D0B1F5003F23D1506830BC1021C0
:101DA000C5E7906830BC0121C1E79068214630BC8E
:101DB000BDE7D06830BC0821B9E7D06830BC10213D
:101DC000B5E7106930BC1021B1E7906930BC012142
:101DD000ADE7906930BC0421A9E7506830BC082108
:101DE000A5E730BC704730B54FF480742502082257
:101DF000102340292FD010DC072926D007DC042926
:101E000025D005291ED0062900D184609BE608292B
:101E10001FD02029FAD1026195E6B1F5806F21D05B
:101E200009DCA14219D0B1F5007FEFD1816921F021
:101E30000201816187E6A94219D0B1F5003FE5D1E1
:101E4000436080E6012181607DE685607BE6C260BB
:101E500079E6C36077E6036175E6816921F00101E7
:101E6000816170E6816921F0040181616BE6426065
:101E700069E60000064C074D06E0E06840F001030B
:101E800094E8070098471034AC42F6D3FEF732F9D5
:101E9000C41E0008E41E000802E008C8121F08C1A2
:101EA000002AFAD170477047002001E001C1121FDB
:101EB000002AFBD17047020405080A1014192832C1
:101EC00064C80000E41E000800000020500000006C
:101ED000981E0008341F000850000020482400000D
:101EE000A81E000800000000000000000000AA5525
:101EF000FF010000000000000000000000000000E2
:101F0000A50000000200000000000000FFFFFFFF2E
:101F1000FFFF14000000080700000000000000029E
:101F20000406080000000001020304010203040685
:041F30000708090095
:04000005080000ED02
:00000001FF
