:020000040000FA
:10000000C0E9072091730000997300009B73000002
:100010009D7300009F730000A173000000000000AA
:100020000000000000000000000000004901000086
:10003000A573000000000000D101000021020000B3
:10004000AB730000AB73000025100000AB73000021
:10005000AB730000CF170000AB730000AB73000060
:10006000AB730000AB730000AB730000AB73000018
:10007000AB730000AB730000AB730000AB73000008
:10008000AB730000DB130000AB730000AB73000028
:10009000AB730000AB730000AB730000AB730000E8
:1000A0001D710000AB730000AB730000AB73000068
:1000B000AB730000AB730000AB730000AB730000C8
:1000C000AB730000AB730000AB730000DFF80CD023
:1000D0000BF0BAF800480047594A0000C0E9072071
:1000E00080F309887047EFF309807047684680F312
:1000F000098804480078C00714BF0220032080F359
:10010000148870471CDD0000DFF818C0EFF305838A
:100110001B0618BF6047EFF31483DB0708BF604777
:1001200000DF7047C3CF0000DFF818C0EFF305838E
:100130001B0618BF6047EFF31483DB0708BF604757
:1001400000DF704711D20000EFF30980816911F8D8
:10015000021C39BB90E80F10E047EFF3098C194BF4
:1001600093E80600914218D059B10CB44FF0010346
:1001700081F826302CE9F00FC1F82CC00DF0DEFB21
:100180000CBC1A60D2F82CC0BCE8F00F92F82630F4
:100190008CF309881BB192F82500CCF800006FF0B1
:1001A000020E704710B5084A1268914209D8074CF0
:1001B00054F8214090E80F10A047EFF3098C8CE829
:1001C0000F0010BDA8C1072034B7000034B70000ED
:1001D0000DF06AFA114B93E8060091421BD00CB463
:1001E0004FF0000381F82630EFF3098C2CE9F00F73
:1001F000C1F82CC00DF0A2FB0CBC1A60D2F82CC0C8
:10020000BCE8F00F8CF3098892F826301BB192F805
:100210002530CCF800306FF0020E7047A8C10720DF
:100220000DF05EFCD6E700000CF0CAFE0DF058FCA5
:10023000D0E700001CB500208DF800008DF801000B
:1002400003208DF8020000208DF803008DF80400D3
:10025000684608F0DDFC00208DF8000001208DF8D4
:10026000010003208DF8020000208DF803008DF8B6
:100270000400684608F0CCFC1F49204808F063FDE4
:1002800001211E4808F0CBFD1CBD30B58BB00446E3
:100290000D46502000900194029500200390049098
:1002A00005900690032007900020089009900A907E
:1002B00000226946114808F0A8FF0BB030BD30B5E8
:1002C0008BB004460D46502000900194012002900E
:1002D00000200390601C04900595002006900320E8
:1002E00007900020089009900A9000226946034870
:1002F00008F08BFF0BB030BD801A060000C005402F
:1003000010B50B46511E06E000EB810454F8044C76
:1003100040F82140491E0029F6DC036010BD10B5ED
:100320000B46511E06E000EB810454F8044C40F8E3
:100330002140491E0029F6DC036010BD10B50246BD
:100340000B460020002103E052F821402044491CC4
:100350009942F9DB10BDF0B504460D46002000219E
:1003600009E0D7187F1A97FBF3FC03FB1C7654F8BF
:1003700026703844491CA942F3DBF0BD2DE9F04159
:1003800005460E460027002406E055F8241038469E
:100390000AF0F1FA0746641CB442F6DB3846BDE8C1
:1003A000F08110B50346002002E043F82010401C05
:1003B0009042FADB10BD10B50346002002E043F87E
:1003C0002010401C9042FADB10BD000010B59E4882
:1003D000807F40B29D490870002415E004EB840042
:1003E0009B4901F81040002004EB8401984A02EB7D
:1003F0004101C1F805009548007804EB840102EB47
:1004000041014872601CC4B2202CE7DB00241AE0D2
:10041000904931F914000AF004FD04EB84018C4A80
:1004200002EB4101C1F801000A2004EB840102EB58
:100430004101C1F80500032004EB840102EB4101F6
:100440004872601CC4B28348143890F91200A0426C
:10045000DEDC10BD30B56FF000430022012113E057
:1004600001EB81007A4C04EB4000D0F80500984283
:1004700009DA01EB810004EB4000D0F8053001EB14
:10048000810014F81020491C1F29E9DB724800681C
:1004900002EB82046E4D05EB4404C4F8010002EB4C
:1004A00082002C4604EB400030BD2DE9F84F824617
:1004B000BAF1000F01D1BDE8F88F6848006880B933
:1004C000012066490860DAF80500401CCAF80500FA
:1004D00009F00CFA0321B0FBF1F201FB12006049B4
:1004E00008609AF8000020B9DAF801005A4908605B
:1004F00040E05C4800680AF0DFFC064600224FF04E
:1005000080430AF0ADFB04460D46DAF8011052486C
:1005100000680AF082FA06460AF0CEFC21F000419B
:10052000804622462B460AF0EFFC23D84C49096846
:10053000481E0AF076FC83464A48016858460AF08D
:1005400072FA8146DAF80110474800680AF013FA97
:10055000494600900AF00FFA80460AF0ADFC0646C4
:1005600000224FF080430AF0EDFB04460AF0E0FC65
:100570003949086000BF9EE72DE9F05FDFF8EC9095
:100580004FF0000A00262EE006EB8600304901EB12
:100590004004D4F80500002823DDD4F801102E48CB
:1005A00000680AF03AFA83460AF086FC21F000411E
:1005B00007460AF0BDFC0546607A0AF03BFC80461F
:1005C0002848016840460AF02EFA074629460AF0F4
:1005D000D5FC06D2494628460AF0C6FC01D2A946F7
:1005E000A246701CC6B2202ECEDB5046BDE8F09F5E
:1005F00010B500241E48006810F0005F09D11C48A7
:10060000006810F0806F04D11948006810F0805F16
:1006100000D010BD1648006810F0040F03D1002070
:100620000E4908600AE0FFF7A7FF044634B91148F5
:100630000078032802DDFFF70DFF04462046FFF790
:1006400034FF00BFE5E700006FDD072008C007208A
:10065000D8C1072078DE0000A8C0072000C007200E
:1006600004C007207CC00720B8C0072000007A44DF
:1006700028C107207AC007201CB501208DF8000092
:1006800016208DF8010001208DF8040000208DF85F
:1006900002008DF80300684608F0BAFA01229105BD
:1006A000104609F059FE1CBDC0EB0012510000E0DD
:1006B00000BF0A00A1F10101FAD1704710B54FF453
:1006C0008001012009F05CFE4FF49670FFF7ECFF0B
:1006D0004FF48001012009F05DFE4FF4F070FFF748
:1006E000E3FF4FF48001012009F04AFE9620FFF756
:1006F000DBFF012009F058FE04469620FFF7D4FFE7
:1007000014F4800F01D0012010BD0020FCE770B56B
:100710000546002417E04FF48001012009F03AFE5D
:100720000120A040284204D04FF48001012009F0AC
:1007300027FE6920FFF7B8FF4FF48001012009F080
:100740001FFE601CC4B2082CE5DB70BD70B500252F
:1007500000241BE04FF48001012009F01BFE4FF440
:100760008001012009F00CFE0F20FFF79DFF012002
:1007700009F01AFE10F4800F03D00120A040284396
:10078000C5B27820FFF790FF601CC4B2082CE1DBF3
:10079000284670BD3EB50546FFF790FF28B3CC2034
:1007A000FFF7B5FFBE20FFF7B2FF002405E0FFF71B
:1007B000CDFF0DF80400601CC4B2092CF7DBFFF775
:1007C0007DFF80B1CC20FFF7A2FF4E20FFF79FFFF7
:1007D0009DF80200FFF79BFF9DF80300FFF797FFCE
:1007E0002846FFF794FFFFF769FF3EBD2DE9F0476C
:1007F0000024FFF763FFCC20FFF789FF4420FFF7B9
:1008000086FF4FF47A70DFF8FCC000DFFFF756FF79
:10081000CC20FFF77CFFBE20FFF779FFFFF796FFA4
:100820008246FFF793FF81464C464FF6FF7000EA81
:10083000042444EA0A0420460AF012FB0746002278
:10084000314B0AF00DFA05460AF072FBBDE8F0875D
:100850004FF00009FFF710FF7F20FFF79BFFFFF726
:100860002DFF28B1CC20FFF752FF4420FFF74FFFA8
:1008700000BF40F6B830DFF88CC000DFFFF71EFF86
:10088000002833D0CC20FFF742FFBE20FFF73FFF08
:10089000FFF75CFF8346FFF759FF0446A1464FF67A
:1008A000FF7000EA092949EA0B0948460AF0D8FA1C
:1008B00007460022144B0AF0D3F905460AF038FB2C
:1008C0008246124950460AF04FFB02D21048C0F847
:1008D00000A01048DFF840C000DF38B14FF6FF72CB
:1008E0004FF400710B48DFF834C000DFFFF7E6FE7D
:1008F0000028BED0CC20FFF70AFF4420FFF707FFF7
:10090000B7E7000015D100000000B03F0000A04292
:100910000CC007200CDE07200DD30000F1D300002F
:100920001CB500208DF800000A208DF8010002207F
:100930008DF8020000208DF803008DF80400684651
:1009400008F066F900208DF800000B208DF80100FA
:1009500002208DF8020000208DF803008DF80400BD
:10096000684608F055F93A493A4808F0ECF901218F
:10097000384808F054FA1CBD30B58BB004460D461B
:100980003F20009001940295002003900490059070
:100990000690032007900020089009900A900022FA
:1009A00069462C4808F031FC0BB030BD30B58BB037
:1009B00004460D463F200090019401200290002043
:1009C0000390601C0490059500200690032007907A
:1009D0000020089009900A90002269461D4808F0FE
:1009E00014FC0BB030BD38B50446009401216846B4
:1009F000FFF7C2FF38BD10B58820FFF7F4FF10BD28
:100A000010B58C20FFF7EFFF10BD10B58820FFF761
:100A1000EAFF10BD10B5C120FFF7E5FF10BD10B50E
:100A2000C020FFF7E0FF10BD1FB500208DF80000CB
:100A3000002405E00848015D601C0DF80010C4B2F8
:100A40000F2CF7DB10216846FFF796FF1FBD000053
:100A5000A086010000000A40F0DD07202DE9FF5FBD
:100A6000B64890F91260B64800680390002510E07F
:100A7000B248143030F91500B049B1F9101088426D
:100A800005D1AF4800EB8500D0F800B003E0681C4A
:100A900045B2B542ECDB00BF002461E0A84901EBA0
:100AA000840108680AF008FA0022A64BCDE900018B
:100AB0000AF048F907460AF03BFA81464FF07E5AA1
:100AC00000250DE004EB84009F4901EBC00040F8D5
:100AD00025A04946504609F0A6FF8246681C45B24B
:100AE000B542EFDB9549B1F910000AF09AF902908E
:100AF0005846039909F091FF90491431019031F95A
:100B000014000AF08EF90090019909F08CFF8046DC
:100B1000029909F0BEFF0746039909F02CFF04EB88
:100B20008401894A02EBC10141F8260004EB8401EB
:100B300002EBC10151F826000AF0BEF90746002277
:100B4000804B0AF0FFF8CDE900010AF0F1F904EB5F
:100B500084017D4A02EBC10141F82600601C44B2C9
:100B6000B4429BDBBDE8FF9F2DE9F0470446002718
:100B700057E0781C45B250E007EB8702724B03EB5D
:100B8000C20252F8271005EB850203EBC20252F8AD
:100B9000270009F07EFF8046781C46B21DE007EB77
:100BA0008700694A02EBC00050F82610404609F061
:100BB0003AFF824605EB8500634A02EBC00050F81D
:100BC0002610504609F02CFF05EB85015E4A02EB2A
:100BD000C10141F82600701C46B2A642DFDB07EBDC
:100BE0008700594A02EBC00050F82410404609F033
:100BF0001AFF824605EB8500534A02EBC00050F80D
:100C00002410504609F00CFF05EB85014E4A02EB1B
:100C1000C10141F82400681C45B2A542ACDB781C38
:100C200047B2601EB842A4DC621E02EB8202464B51
:100C300003EBC203621E53F8221002EB8202424B06
:100C400003EBC20252F8240009F023FF611E01EBFE
:100C500081013D4A02EBC10141F82400A01E45B2CA
:100C60003AE04FF00009681C46B215E006EB860238
:100C7000354B03EBC20252F8241005EB850203EB5F
:100C8000C20252F8260009F0CEFE8246494609F01B
:100C900072FE8146701C46B2A642E7DB05EB850179
:100CA000294A02EBC10151F82400494609F0B5FE7A
:100CB000824605EB8500244A02EBC00050F825105F
:100CC000504609F0E6FE05EB85011F4A02EBC10123
:100CD00041F82400681E45B2002DC2DABDE8F08755
:100CE00010B51748808FA0F56B41903903D00020D4
:100CF0001649888710BDFFF7B1FE1049887CFFF7C1
:100D000033FF00240EE004EB84000F4901EBC00028
:100D10000A4991F9121050F821000C4941F82400B9
:100D2000601C44B2054890F91200A042EBDC4EF67C
:100D300090300649888700BFDCE7000064DE0000D1
:100D4000E6C4072084D7974118C30720A8C407200A
:100D50001CB500208DF802008DF804008DF803000A
:100D600001208DF800001C208DF80100684607F076
:100D70004FFF1D208DF80100684607F049FF6D48C0
:100D8000806B40F000506B4988630846806B40F0F0
:100D90008050886301221107104609F0DDFA012214
:100DA0005107104609F0D8FA00208DF802008DF89E
:100DB00004008DF8030001208DF8000018208DF844
:100DC0000100684607F024FF19208DF801006846ED
:100DD00007F01EFF1CBD5748C06B40F080505549BE
:100DE000C8630846806B40F00050886370475148E4
:100DF000C06B40F000504F49C8630846806B40F01C
:100E00008050886370474B48806B40F040504949A0
:100E10008863704770B5002511E04648406B00F0CC
:100E200080740520DFF810C100DF4248406B00F0FD
:100E30008070A04201D0002070BD681CC5B20A2D90
:100E4000EBDB0CB90120F7E70020F5E770B50025D2
:100E500011E03848406B00F000740520DFF8D8C07E
:100E600000DF3448406B00F00070A04201D0002049
:100E700070BD681CC5B20A2DEBDB0CB90120F7E789
:100E80000020F5E770B50546002611E02948406BC3
:100E900000F040740520DFF8A0C000DF2548406B5B
:100EA00000F04070A04201D0002070BD701CC6B29E
:100EB0000A2EEBDBAC4201D10120F6E70020F4E77B
:100EC00010B5FFF788FF00BFFFF7A4FF0128FBD094
:100ED00000BFFFF79FFF0028FBD0FFF794FF10BD76
:100EE00010B5FFF778FF00BF4FF00070FFF7CAFFA3
:100EF0000128F9D000BF4FF00070FFF7C3FF0028B2
:100F0000F9D0FFF780FF10BD10B5FFF764FF00BFF9
:100F10000020FFF7B7FF0128FAD000BF0020FFF73D
:100F2000B1FF0028FAD0FFF76EFF10BD10B5FFF734
:100F3000D7FF10BD00C0092015D1000010B5044630
:100F4000012C0FD102200121814042094FF0E02302
:100F500003EB8202C2F8001100BF0121C74807F06D
:100F600087FC0BE0022001218140C54A430942F879
:100F7000231000BF0021C14807F07AFC10BD1CB54A
:100F800003208DF8020000208DF804008DF8030086
:100F900001208DF8000012208DF80100684607F04E
:100FA00037FE03208DF8020000208DF804008DF834
:100FB000030001208DF8000013208DF80100684621
:100FC00007F026FE0020AF490870012048600A465D
:100FD0000021AA4807F08CFB0120AB4908708870FB
:100FE000C870A64807F03EFD0020A7490870A34836
:100FF00007F038FDA14807F05CFC02200921002819
:1010000007DACA06140EA14A00F00F031B1FD454BE
:1010100003E0CA06130E9E4A135400BF0020FFF7D8
:101020008DFF1CBD10B50421944807F0D4FA50B1CF
:101030000421924807F027FB0021904807F051FD5A
:101040009449086010BD05218C4807F0C4FA0028B7
:101050003CD00521894807F016FB0121874807F09D
:1010600040FD8D49086000208C4908608A4800686E
:101070008B4908600846006886490968441A89480F
:101080008949096840F8214088480068401C874920
:101090000860084600688649096888420BD1824882
:1010A000006884490860002080490860824801681F
:1010B00001200BF04DFF7C480068401C4FF461613B
:1010C000B0FBF1F201FB12007749086000BFB9E7FD
:1010D000FFF755FF00BF03E0C820DFF8E0C100DFE5
:1010E0007748006810F0004FF6D000224FF6FF71ED
:1010F0000120DFF8D0C100DF734800687349086041
:1011000066480068401C6549086008460068082871
:1011100006D96B48006840F4004069490860DAE786
:101120006748006820F40040654908604FF4616337
:10113000604802685E4801685A48FFF70CF9624946
:1011400008605F48006810F0010F0CD0604800682C
:10115000096808445E49496808445D49896808444B
:101160008008594908601022574801685848FFF71D
:10117000C7F858480068401C56490860564800782F
:10118000012806D0022817D0042828D008284BD1DF
:1011900038E050480068012800D09CE700204D4905
:1011A000086001214A48FFF7C9F847490860084626
:1011B0000068C000086037E046480068042800D096
:1011C00089E700204349086004214148FFF7B6F849
:1011D0003D490860084600684000086024E03D483A
:1011E0000068042800D076E700203A49086004210E
:1011F0003748FFF7A3F83449086008460068400004
:10120000086011E033480068082800D063E7002038
:101210003049086008212E48FFF790F82A490860F5
:1012200008460068086000BF00BF2C4800782A49C3
:101230000978884219D028480078022815D1274813
:101240000078012811D108221F4801682448FFF7BF
:1012500057F808221C4801682148FFF751F8082276
:10126000194801681E48FFF74BF81B4800781B49D6
:1012700008701548006801F006FC2CE7008000406B
:1012800080E100E02CC0072034C0072018ED00E00A
:1012900000E400E028C0072038C0072010C0072065
:1012A00040C007200000001014C0072018C007200D
:1012B0004CC007201CC00720E4C0072015D1000047
:1012C00028C10720D5D1000044C0072048C007200E
:1012D0004038001024C0072020C0072050C007203D
:1012E000F0DC072010B50021A04808F0C4FFA04999
:1012F000884229D00A4600219C4808F09BFF9B4861
:1013000008F012FB994808F038FB00221146974874
:1013100008F07FFC00220121944808F07AFC0022AA
:101320000221924808F075FC012206218F4808F03E
:1013300070FC40F2DC7207218C4808F06AFC012244
:1013400004218A4808F065FC01220021874808F042
:1013500046FB00220121854808F041FB00220221C2
:10136000824808F03CFB00220321804808F037FB4C
:10137000002204217D4808F032FB002205217B4831
:1013800008F02DFB00220621784808F028FB0022F7
:101390000721764808F023FB11200921002807DAED
:1013A000CA06140E734A00F00F031B1FD45403E047
:1013B000CA06130E704A135400BF11200121814048
:1013C00042094FF0E02303EB8202C2F8001100BF94
:1013D0000121664808F0E4FA10BD10B50121634808
:1013E00008F09AFE30B10121604808F0B7FE63486A
:1013F0000BF0C9FD10BD00216048DFF884C100DF9B
:10140000FFF770FF00BF4FF6FF715C48DFF874C153
:1014100000DF5D49554808F029FD5C48006810F080
:10142000004F00D1EFE75A480BF070FF20B14FF4A6
:10143000807157480BF0A0FDE5E730B589B000BFDB
:1014400001A94A4808F012FD0898A0F2B27040F2D3
:101450006D1100FB01F40898A0F2B17004EB900448
:1014600008980BF05BFD20B10798022801D90120F4
:1014700000E000200444002504E0464840570444AE
:10148000681C45B20798401EA842F6D80498401E32
:101490000444414844430398C0EB4011C1EB002091
:1014A00004EB00140298C0EB001004EB80040198D8
:1014B0000444204609B030BD2DE9F84F04460D46DE
:1014C00040F2B2780DE040460BF028FD08B1334EF3
:1014D00000E0334EB44203D3A41B08F1010800E03E
:1014E00000E0F0E700BF012713E040460BF016FDD7
:1014F00018B1022F01D12B4E05E0781E2549085660
:10150000254900FB01F6B44202D3A41B7F1C00E076
:1015100000E0EAE700BF2048B4FBF0F000F1010A68
:101520001D48B4FBF0F100FB11444FF46160B4FBC3
:10153000F0FBB4FBF0F100FB11443C20B4FBF0F0F5
:1015400000903C20B4FBF0F100FB1144A146C5F82B
:101550001C80AF61C5F80CA0C5F808B000986860A1
:101560004C46C5F80090BDE8F88F000000400240EE
:1015700090EB90EB18ED00E000E400E060C0072085
:10158000BDD80000FDD8000024C5072028C10720D1
:101590000CDE072054C00720805101000085E201C5
:1015A0008033E101803B260000BFFEE77047044620
:1015B000012C04D0022C05D0032C05D103E00CF043
:1015C00087FB01E000E000BF00BF00BFFEE70000B6
:1015D00010B586B001208DF8060000208DF80800B7
:1015E0008DF8070002208DF8050000208DF804001A
:1015F00001A807F00DFB03208DF8050001A807F0F6
:1016000007FB04A806F0B2FACE48C079401ECE49C6
:1016100051F820000490CB48007A401EC0B28DF8EB
:101620001500C848407A401EC0B28DF81600C54863
:10163000807A401EC0B28DF8140004A9C34806F099
:1016400015F903A806F0C7FC03A9C04806F044FC3E
:101650000121BE4806F010FA01220021BB4806F025
:1016600071FB01220221B94806F06CFB0020B84949
:101670000870B8498860C860086048600520092182
:10168000002807DACA06140EB34A00F00F031B1F26
:10169000D45403E0CA06130EB04A135400BF052009
:1016A0000121814042094FF0E02303EB8202C2F89E
:1016B000001100BF06B010BD10B500220121A348E3
:1016C00006F040FB00BFA14806F0FDFB0128FAD060
:1016D00012E0A048426810301118002301229B48F4
:1016E00006F086FA38B19B484068401C00F01F00A5
:1016F0009849486000E009E09648006800F01F0043
:101700009449496801F01F018842E2D100BF914825
:10171000006800F01F008F49496801F01F018842EE
:1017200008D100220121894806F00CFB00208849DD
:10173000087007E00120864908700122114683489D
:1017400006F000FB10BD38B53BE0002301226946DE
:101750007E4806F098FA04468CB37E48C06800F0D4
:101760001F017C488068401C00F01F00814228D087
:101770009DF8001077488268303081543038806896
:10178000401C00F01F0073498860084680680128EB
:1017900017D99DF800000A2813D108468068801EDA
:1017A0003031085C0D280CD100221146674806F044
:1017B000C9FA6B48016801200BF0CAFB01E0FFE7A2
:1017C00000E0C2E700BF38BD00E000BFFDE770B534
:1017D0005E4806F05EFB064606F00E04062C09D1B4
:1017E0005A4806F031FB054605F09E0515B1E8B2F2
:1017F000FFF7EAFF042C01D00C2C01D1FFF7A3FF67
:10180000022C01D1FFF758FF70BD2DE9F041804651
:101810000D4614462E46002700220121404606F0C0
:1018200091FA0FE031784B48026810308154761CF1
:1018300010380068401C00F01F00464908607F1CFB
:10184000601EC4B2002C0ADD4248406800F01F014F
:1018500040480068401C00F01F008142E2D13C4833
:10186000007810B9FFF728FF04E001221146404636
:1018700006F068FA3846BDE8F0812DE9F04180466F
:101880000D4614462E46002700221146404606F01B
:1018900059FA0FE02F48C1683030405C3070761C38
:1018A0002C48C068401C00F01F002A49C8607F1CFB
:1018B000601EC4B2002C09DD2648806800F01F00BD
:1018C0002449C96801F01F018842E3D101220021A7
:1018D000404606F037FA3846BDE8F08170B5044658
:1018E000204609F009F8054601232A4621461748F3
:1018F00006F07EF970BD00BF00224FF6FF7108466A
:10190000DFF860C000DF0446022CF5D1DFF858C0D4
:1019100000DF0546012D07D10E488068C1B20D4891
:10192000303004F034FE00BF00BF00200949886059
:10193000C8600860486001220021044806F002FAED
:10194000DAE7000062DD072034DD000000C000405F
:101950006CC007202CDC072018ED00E000E400E05C
:10196000ECC00720D5D100001DD100002DE9F047C3
:1019700086B04FF07E50FE4908604FF0000A0FE03D
:10198000FB48006809F098FA0446FA4AFA4B09F055
:1019900067F9064609F0CCFAF54908600AF1010A30
:1019A000F648B0F912005045EADCF548F549086000
:1019B000F5488860F5480861F048408A04286BD1F2
:1019C000EE49886809F078FA06460F46E84800684C
:1019D00009F072FA80460022ED4B09F041F93246D7
:1019E0003B46CDE9040109F0ADF9044609F0A0FA3F
:1019F000E449C861E149886809F05EFACDE904016B
:101A0000DB48006809F058FACDE90201E14949785C
:101A1000E14A52F8210009F04FFA0022DF4BCDE9EC
:101A2000000109F01DF98046DDE9022309F018F9EB
:101A30000646DDE9042309F085F9044609F078FA41
:101A4000D0490862CD49886809F036FACDE902012B
:101A5000C748006809F030FA06460F46CD49497874
:101A6000CD4A52F8210009F027FA0022CC4BCDE9EB
:101A7000000109F0F5F8804632463B4609F0F0F8DF
:101A80000446DDE9022309F05DF9CDE9040109F01E
:101A90004FFABC4948626CE0B849886809F00CFA12
:101AA000CDE90401B248006809F006FA8046002238
:101AB000BC4B09F0D5F80646DDE9042309F042F9EC
:101AC000044609F035FAAF49C861AC49886809F0A5
:101AD000F3F904460D46A648006809F0EDF90646FC
:101AE0000F46AC494978AC4A52F8210009F0E4F9B4
:101AF0008046A04AAC4B09F0B3F832463B46CDE9EC
:101B0000000109F0ADF822462B46CDE9020109F0AB
:101B100019F9CDE9040109F00BFA9A4908629749CD
:101B2000886809F0C9F904460D469148006809F033
:101B3000C3F906460F4697494978974A52F821005B
:101B400009F0BAF980460022964B09F089F832462E
:101B50003B46CDE9000109F083F822462B46CDE94A
:101B6000020109F0EFF8CDE9040109F0E1F9854936
:101B700048628E4883494860C8607D48006809F023
:101B80009BF9804600228A4B09F06AF806460F4608
:101B90008849B1F90C0009F052F932463B46CDE9CB
:101BA000040108F0B6FF044609F0C2F9754948611E
:101BB0007249886809F080F906460F466C4800684B
:101BC00009F07AF9804600227B4B09F049F8324649
:101BD0003B46CDE9040109F0B5F8044609F0A8F93F
:101BE0006849886175496248006808F01CFF6549CA
:101BF00088626249886809F05FF9CDE904016D499E
:101C0000B1F90C0009F01BF980465A4A5A4B09F009
:101C100027F80646DDE9042309F094F8044609F0A4
:101C200087F9674908605549886809F045F9804691
:101C300089466049B1F90C0009F001F9614A624B2B
:101C4000CDE9040109F00CF8064642464B4609F07E
:101C500079F8044609F06CF95C49086047498868DE
:101C600009F02AF9CDE904014148006809F024F996
:101C700006464FF03332564B08F0F2FF0446DDE9DA
:101C8000042309F05FF8804609F052F951490860D1
:101C90003A49886809F010F9804689463448006856
:101CA00009F00AF94FF03332494BCDE9040108F04D
:101CB000D7FF064642464B4609F044F8044609F071
:101CC00037F9454908602D480068444908600020FC
:101CD000434908604349086006B0BDE8F0874248C0
:101CE000006810F0806F01D0032070473E48006804
:101CF00010F0804F01D00220F7E73B48006810F059
:101D0000005F01D00420F0E73748006810F0805FE2
:101D100001D00720E9E70120E7E72DE9F047334844
:101D20000068334908602E4801683148006808F0AF
:101D300074FE044629480168204608F06EFE82467B
:101D40002C4800682C4908600C488168504608F00F
:101D50006AFE284908600F48C07A022801D1FEF7C0
:101D600047FC0C48C07A02286BD11F48006845E048
:101D70007CC007209A9999999999B93F6FDD0720FE
:101D8000B72A074C92DC07205844584D902D904BB1
:101D90000000F03F62DD0720A0DD000000002440CD
:101DA0000000F83F0000E03F9999F93FB72A874CBF
:101DB0000080564064DE0000000008400000404003
:101DC000BCC00720DBF97E6ABC74933FC0C007200B
:101DD00033330B40C4C00720C8C0072088C0072089
:101DE00080C0072084C0072028C107209CC007208E
:101DF000A4C00720A8C00720B0C0072010F0040F1F
:101E00001FD0FE48006809F057F880460022FC4BBE
:101E100008F026FF04460D46FA480168FA480068B3
:101E200008F0FBFD804609F047F821F00041064626
:101E300022462B4609F054F803D2F2480068F249D2
:101E40000860EE48006809F037F806460022EF4BBC
:101E500008F006FF04460D46EB48006809F02CF830
:101E600021F00041804622462B4609F039F802D283
:101E70000020E5490860E4480068E2490860BDE8E0
:101E8000F087E348006810F0040F03D00820E14910
:101E9000087014E0DE48006810F0020F03D0042040
:101EA000DC4908700BE0DA48006810F0010F03D03D
:101EB0000220D849087002E00120D6490870704716
:101EC0002DE9F041D248006810F0005F01D1BDE873
:101ED000F081D148007801287DD1D049C86808F048
:101EE000EBFF04460D46CD488168CD48006808F0F8
:101EF00094FD804608F0E0FF21F0004106462246AE
:101F00002B4608F0EDFF2DD2C148006810F4806F19
:101F10003FD1BF48006840F48060BD490860084672
:101F2000006820F0010008600846006820F0020008
:101F300008600846006820F0040008600020B949E5
:101F40000870B9490870B9490870B948DFF8E4C2A7
:101F500000DFF0B14FF6FF72B749B548DFF8DCC2D9
:101F600000DF16E0AA48006810F4806F11D0A8487E
:101F7000006820F48060A6490860AD48DFF8B4C26C
:101F800000DF30B14FF6FF72AB49A948DFF8ACC2B1
:101F900000DF9F48006810F0040F29D09C480068BB
:101FA00010F4806F24D0A6480068401CA449086043
:101FB0000846006803281ED199480068A1490860B6
:101FC0000220954908709248006820F4806090498A
:101FD0000860974800E00EE0DFF858C200DF50B11B
:101FE0004FF6FF7298499248DFF850C200DF02E0D6
:101FF0000020934908608848007802287ED18749EC
:10200000486808F059FF04460D4684480168844832
:10201000006808F002FD804608F04EFF21F0004104
:10202000064622462B4608F05BFF2DD27848006812
:1020300010F4806F3FD17648006840F480607449A6
:1020400008600846006820F0010008600846006843
:1020500020F0020008600846006820F004000860D4
:102060000020704908707049087070490870704805
:10207000DFF8C0C100DFF0B14FF6FF7272496C4863
:10208000DFF8B8C100DF16E06148006810F4806F27
:1020900011D05F48006820F480605D4908606448A2
:1020A000DFF890C100DF30B14FF6FF72664960483B
:1020B000DFF888C100DF5648006810F0040F7CD0BC
:1020C0005348006810F4806FF9D05D480068401CE8
:1020D0005B4908600846006803288FD150480068B3
:1020E0005A49086000204C4908704948006820F4AB
:1020F0008060474908605348006800E0BBE05449ED
:1021000048605248006808605048006851490860BB
:10211000002051490860514908603D48006840F47A
:1021200000503B4908600846006810F0805F49D1C4
:102130004B48407902280ED1444801684148006864
:1021400008F06BFC04464249C868214608F0A1FC2F
:102150003F49886011E03D4801683A48006808F04E
:102160005CFC04463F49B1F9100008F05AFE0546F0
:10217000214608F08EFC36498860FFF7F7FBFEF732
:10218000AFFDFEF723F9002000F007FE4FF4FA70D0
:10219000DFF8D4C000DF022000F066FE4FF4FA70D2
:1021A000DFF8C4C000DF2248DFF888C000DFE8B1F4
:1021B0004FF6FF722D491E4800E059E0DFF87CC061
:1021C00000DF13E0214801681E48006808F025FC84
:1021D00004462449B1F9100008F023FE05462146C3
:1021E00008F057FC1A498860FFF7C0FB08480068F0
:1021F00020F00050064908603DE000007CC0072048
:1022000000000840B8C00720A8C007200000F83F21
:1022100028C1072020C0072094C0072092DC072097
:102220009CC007207AC0072079C0072078C007200B
:102230000CDE07200DD3000020000020F1D30000A9
:1022400090C00720D0C0072020000040D4C0072045
:102250006FDD072088C0072084C0072080C00720CA
:1022600062DD072064DE000015D100002000008040
:102270000020FE49086000BF29E62DE9F047FC4830
:10228000006810F0010F25D0FA490968F94A526830
:10229000881A01D4014600E041420C46B4F5967F0D
:1022A0005FD9F348006820F00100F1490860084652
:1022B000006820F0020008600846006820F0040072
:1022C00008600020EC490870EC490870EC4908707F
:1022D000BDE8F087E7490968E64A5268881A01D4E0
:1022E000014600E041420C46E2494968E14A9268F1
:1022F000881A01D4014600E041428946DC48006862
:1023000020F00100DA490860A02C17D2B9F1A00F23
:1023100014D2D9480078401CD74908700846007884
:1023200001281EDBD248006840F00100D049086057
:10233000D1480078401ED049087012E0CC480068AF
:1023400020F00200CA4908600846006820F0040036
:1023500008600020C8490870C8490870C84908705A
:10236000B6E7C348006820F00200C1490860C549CB
:10237000086A08F0A1FD05460E46C34A5168106878
:1023800008F04BFB824608F097FD21F0004107461C
:102390002A46334608F0A4FD14D2B8480078401C01
:1023A000B649087008460078012817DBB048006875
:1023B00040F00200AE490860B0480078401EAF49C6
:1023C00008700BE0AA48006820F00400A8490860E3
:1023D0000020AA490870AA49087079E7A448006853
:1023E00020F00400A2490860A649486A08F064FD8C
:1023F00005460E46A44A5168106808F00EFB824656
:1024000008F05AFD21F0004107462A46334608F0FD
:1024100067FD14D29A480078401C99490870084614
:10242000007803280EDB9248006840F004009049D1
:10243000086093480078401E9149087002E000202F
:102440008F490870914800689149086000BF3FE7D4
:102450002DE9F0418648006810F0005F01D0BDE82A
:10246000F0818348006810F0040F1AD08549C869CC
:1024700008F022FD04460D4685480168834800683F
:1024800008F0CBFA804608F017FD21F0004106461F
:1024900022462B4608F024FD03D27D4800687B4984
:1024A000086000BFDBE72DE9F0477A480079022891
:1024B00001D1BDE8F0876E48006810F0010F09D027
:1024C0006B48006810F0005F04D16948006810F0A4
:1024D000806F00D0EDE76B49886908F0EDFC054698
:1024E0000E466D4801686948006808F096FA814612
:1024F0006A480168484608F090FA044608F0DCFC97
:1025000021F0004107462A46334608F0E9FC21D273
:10251000634908686049096808F07FFA6149086002
:102520005D4801685948006808F025FA81465B4813
:102530000168484608F01FFA044608F0BDFC07464B
:1025400000224FF0804308F0FDFB054608F0F0FC48
:102550004E49086000BFACE72DE9F04744480068E9
:1025600010F4804F65D05048006808F0A5FC05467F
:102570000E46494801684548006808F04EFA814611
:1025800008F09AFC21F0004107462A46334608F03D
:10259000A7FC34D83648006810F4805F12D0344865
:1025A000006820F48050324908604048DFF800C1DC
:1025B00000DF38B14FF6FF724FF480613B48DFF81F
:1025C000F4C000DF2A48006810F0040F16D02F482E
:1025D00000683149086000203049086024480068DC
:1025E00040F40050224908600846006820F480400A
:1025F00008600846006820F080600860A6E01C487B
:10260000006810F4805F13D11948006840F48050CE
:10261000174908602548DFF898C000DF002807D078
:102620004FF6FF724FF480612048DFF888C000DF6A
:102630008CE01B4801681548006808F0EEF98046F8
:1026400016480168404608F0E8F9054608F034FCF1
:1026500021F00041064608F06BFC0446164801686C
:10266000204608F08BFC41D2014827E090C00720AB
:1026700028C107204038001078C0072079C0072003
:102680007AC0072092DC0720C0DC07209CC007200E
:10269000A0C0072062DD072088C0072080C0072077
:1026A0006FDD072084C00720BCC007200CDE072098
:1026B0000DD30000F1D30000C0C00720006810F463
:1026C000805F43D1FE48006840F48050FC490860B8
:1026D000FC48DFF8F4C300DFC0B34FF6FF724FF4DD
:1026E0008061F848DFF8E4C300DF2FE0F4480068B9
:1026F00010F4805F12D0F248006820F48050F04956
:102700000860F048DFF8C0C300DF38B14FF6FF7251
:102710004FF48061EB48DFF8B4C300DFE84800689D
:1027200010F0040F12D0EA480168EA48006808F087
:1027300074F9E9490860E248006840F40050E04953
:1027400008600846006820F080600860BDE8F087F7
:102750002DE9F041E149486808F0AEFB04460D461A
:10276000DD480168DB48006808F057F9804608F04A
:10277000A3FB21F00041064622462B4608F0C4FB8D
:1027800018D2CF48006810F4805F42D1CC4800686E
:1027900040F48050CA490860CA48DFF82CC300DF03
:1027A000B8B34FF6FF724FF48061C648DFF81CC320
:1027B00000DF2EE0C248006810F4805F12D0C048ED
:1027C000006820F48050BE490860BE48DFF8F8C2B7
:1027D00000DF38B14FF6FF724FF48061B948DFF87F
:1027E000ECC200DFB648006810F0040F11D0B94801
:1027F0000068B94908600020B5490860B048006821
:1028000040F40050AE4908600846006820F080603F
:102810000860BDE8F08110B5A948006810F0806F2D
:1028200000D110BDA648006810F0080F18D0A448C9
:10283000006810F0040F13D0A6480068A64908608D
:102840009F48006840F400509D49086008460068B1
:1028500020F0080008600846006820F080600860EA
:102860009F48007B012802D1FFF772FF01E0FFF7CC
:1028700073FE00BFD5E770B59148006810F0804F37
:1028800070D09348006808F017FB054600221346F5
:1028900008F03AFB09D200208D490860884800689A
:1028A00020F080408649086070BD8B4801688948E7
:1028B000006808F0B2F80446204608F0FDFA054624
:1028C0000022134608F00CFB0FD38649B1F90C0027
:1028D00008F0A7FA064684488168304608F0D9F81F
:1028E0000546214608F040FB2AD28048C06940F4E2
:1028F00080207E49C8613220DFF8F4C100DF7B48C8
:10290000806940F48020794988613220DFF8E0C195
:1029100000DF7648C06940F480207449C8613220E5
:10292000DFF8CCC100DF7148806940F480206F4936
:1029300088616348006820F080406149086011E0C8
:102940005F48006810F0040F0CD0614804605C48D8
:10295000006840F400505A4908600846006820F0BA
:102960008040086000BF9FE72DE9F05F4FF07E5A7E
:102970004FF0000B5248006810F0805F04D15048BF
:10298000006810F0005F01D0BDE8F09F5948808FCB
:10299000A0F56B41903933D14E48006808F08CFAAD
:1029A00007460022544B08F0CDF9054608F0C0FA5E
:1029B0008146002412E04F4901EB8401086851462A
:1029C00008F031F80546594607F0D5FF83464946D9
:1029D000504608F028F88246601CC4B2414890F97D
:1029E0001200A042E7DC584608F066FA05460022CD
:1029F000414B08F035F9074608F09AFA3549086066
:102A000000BFC1E72DE9F047814600203149086049
:102A1000082249463948FDF773FC002414E0374981
:102A200051F8240008F006FA0646354850F82410FC
:102A3000304607F0F8FF054626480168284607F0AB
:102A40009AFF24490860641C082CE8DB21480068D0
:102A500008F032FA074600224FF0804308F000F9F0
:102A6000054608F065FA1B490860FFF77DFF194825
:102A70000068244908600822164801682248FDF7CA
:102A80004EFCBDE8F0872DE9F04704462046FFF7ED
:102A9000B9FF0B48006810F0040F41D01B480168D3
:102AA0000C48006807F067FF814608F005FA074602
:102AB00000224FF0804308F045F9054628E0000069
:102AC00028C107200CDE07200DD30000F1D3000041
:102AD00080C007209CC0072088C0072092DC072008
:102AE00062DD072064DE00006FDD072000C00920E2
:102AF00015D10000A8C4072084D79741F0DC072037
:102B000054DD0000CCC00720C0DC0720A0C0072097
:102B100008F00EFA2E490860084600682D49086042
:102B2000FFF7A9FEFFF777FEFFF7BDFCFFF790FC6C
:102B3000FFF7A3FBFFF7C4F9FFF7A3F9FFF7EDF8E1
:102B4000FFF7CDF8082830D2DFE800F02F042D1F62
:102B50002E1112302048DFF884C000DF30B14FF66C
:102B6000FF7280211C48DFF878C000DF1FE000BF43
:102B70001948DFF868C000DF30B14FF6FF7204215A
:102B80001548DFF85CC000DF11E01348DFF84CC0E7
:102B900000DF38B14FF6FF724FF480610E48DFF866
:102BA00040C000DF03E002E001E000BF00BF00BF63
:102BB0000948DFF828C000DF38B14FF6FF724FF444
:102BC00000610548DFF818C000DFBDE8F0870000AD
:102BD0009CC00720CCC007200CDE07200DD30000CE
:102BE000F1D3000010B5FDF725FB10BD38B5044644
:102BF0008DF8004002216846FDF761FB9DF8025008
:102C00009DF8010040EA0525284638BD38B505463F
:102C10000C468DF80050E0B28DF8010020128DF8BE
:102C2000020003216846FDF730FB38BDF8B50546C4
:102C30000E461746002410E02819C0B28DF8000097
:102C4000305D8DF8010002216846FDF71EFB0A2069
:102C5000DFF8B8C300DF601CC4B2BC42ECDBF8BDD7
:102C6000F8B505460E461746002410E02819C0B2F4
:102C70008DF8000001216846FDF721FB9DF8010059
:102C800030550A20DFF884C300DF601CC4B2BC42A8
:102C9000ECDBF8BD10B50020FFF7A8FF10BD10B5A4
:102CA000DB4801880020FFF7B1FF10BD7FB5044667
:102CB0000D25012C04D1D74B0FCB8DE80F002BE055
:102CC000D5480078D5490870D34840784870D24834
:102CD00080788870D048C078C870CF480079087173
:102CE000CD4840794871CC4880798871CA48C0790C
:102CF000C871C948007A0872C748407A4872C64805
:102D0000807A8872C448C07AC872C348407B08730E
:102D10000D22684607F0DEFD0D2269460220FFF70E
:102D200085FF7FBD1FB50D240D2269460220FFF7E8
:102D300097FF0D226946B94807F0CCFDB7480078E7
:102D4000B5490870B54840784870B44880788870B4
:102D5000B248C078C870B14800790871AF4840796E
:102D60004871AE4880798871AC48C179AA48C17170
:102D7000AA48017AA8480172A848417AA648417237
:102D8000A648817AA4488172A448C17AA248C17237
:102D9000A248017BA04841731FBD30B589B00446ED
:102DA0001F25012C05D11F229D4901A807F092FD86
:102DB00004E01F229B4901A807F08CFD1F2201A9F6
:102DC0002020FFF733FF09B030BD10B588B01F24B5
:102DD0001F2269462020FFF743FF1F2269469148C2
:102DE00007F078FD08B010BD30B591B004463E251F
:102DF000012C03D100208C49888703E04EF69030E7
:102E0000894988873E22884901A807F063FD3E2250
:102E100001A95020FFF70AFF11B030BD10B590B0E6
:102E20003E243E2269465020FFF71AFF3E226946A3
:102E30007D4807F04FFD10B010BD10B50446012CC1
:102E400004D0022C06D0032C0CD107E01E20FFF783
:102E5000CDFE10BD4E20FFF7C9FEFAE78E20FFF72A
:102E6000C5FEF6E70020F4E72DE9F04781464FF074
:102E70000008B9F1010F06D0B9F1020F07D0B9F17E
:102E8000030F0CD107E000240F251E2607E02024A5
:102E90001F254E2603E050243E258E2600BF00BF8E
:102EA000002707E03919C8B2FFF7A0FE80EA08083A
:102EB000B81CC7B2AF42F5DB6FEA0800401C1FFA2E
:102EC00080F841463046FFF7A1FEBDE8F0872DE9C6
:102ED000F04781464FF00008B9F1000F09D0B9F171
:102EE000010F11D0B9F1020F12D0B9F1030F17D1B0
:102EF00012E0FFF7CFFE46490988884202D101203F
:102F0000BDE8F0870020FBE700240F251E2609E01E
:102F100020241F254E2605E050243E258E2601E064
:102F20000120EDE700BF002707E03919C8B2FFF71D
:102F30005DFE80EA0808B81CC7B2AF42F5DB6FEA55
:102F40000800401C1FFA80F83046FFF74FFE40454E
:102F500001D10120D4E70020D2E710B50020FFF70F
:102F6000B6FF08B9002010BD0120FFF7B0FF08B977
:102F70000020F8E70220FFF7AAFF08B90020F2E7D7
:102F80000320FFF7A4FF08B90020ECE70120EAE7DF
:102F900010B5FFF7C7FEFFF718FFFFF73FFF10BDA3
:102FA00010B50446FFF77BFE4FF4FA70DFF85CC003
:102FB00000DF2046FFF77AFE4FF4FA70DFF84CC0CE
:102FC00000DF0120FFF750FF4FF4FA70DFF83CC03C
:102FD00000DF2046FFF7E1FE4FF4FA70DFF82CC067
:102FE00000DF0220FFF740FF4FF4FA70DFF81CC04B
:102FF00000DF2046FFF7F8FE4FF4FA70DFF80CC050
:1030000000DF0320FFF730FF10BD000015D10000E6
:1030100064DE000074DD000050DD072062DD072063
:1030200081DD00006FDD0720E6C4072072B60120B5
:10303000794908604FF0AA007849C1F88C004FF038
:1030400055007749086000BF7648006810F0007F9F
:10305000FAD10020704908604FF0AA006F49C1F80A
:103060008C004FF055006E49086000BF6D48006845
:1030700010F0807FFAD169480068C0F30B006749FF
:1030800008600846006840F4A040086000206649D7
:1030900008606249C1F80C0164490860704770B566
:1030A0008AB004460E46A64201D20C2508E0322022
:1030B00000900194029605A968465D4A9047059DD7
:1030C00028460AB070BD70B58AB004460D46164653
:1030D00033200090019402950396564800684FF4FF
:1030E0007A71B0FBF1F0049005A96846504A904708
:1030F00005980AB070BD70B58AB004460E46A64267
:1031000001D20C250FE0342000900194029649482A
:1031100000684FF47A71B0FBF1F0039005A968469E
:10312000434A9047059D28460AB070BDF0B58BB064
:1031300004460F461546A74201D20C260FE0352063
:1031400001900294039706A901A8394A904706986E
:10315000082803D10698286007986860069E3046C4
:103160000BB0F0BD10B58AB004463620009005A91A
:1031700068462F4A90470698206005980AB010BD0F
:1031800030B58BB004460D463720019006A901A842
:10319000274A90470798C0F3072020600798C0B2DD
:1031A000286006980BB030BDF0B58BB004460D46D4
:1031B00016461F463A20019006A901A81C4A9047CE
:1031C0000698206007982860089830600998386051
:1031D0000BB0F0BDF0B58BB005460F4616461C4649
:1031E0003820019002950397049606A901A8104A79
:1031F000904706980A2802D10CB1079820600698DB
:103200000BB0F0BD00B58BB03920019006A901A824
:10321000074A90470BB000BD80C00F4000C00F4070
:103220008CC00F4088C00F4004C10F40A0C10F40A8
:10323000F11FFF1F50C107206021D648DFF858C397
:1032400000DF704708B56021D248DFF84CC300DFCB
:1032500000BF6420DFF844C300DF08F07BFA0446B7
:1032600004B9F6E7002500BF3220DFF830C300DFE5
:10327000681C45B2142D10D1C648DFF824C300DF06
:1032800058B18DF8004002208DF80100BDF8001003
:10329000FF22C048DFF80CC300DF08F05BFAA04251
:1032A000E2D0012D12DD102D10DABA48DFF8F0C29D
:1032B00000DF58B18DF8004001208DF80100BDF805
:1032C0000010FF22B348DFF8DCC200DFC1E738B5E9
:1032D000044622466946AF48DFF8CCC200DF012829
:1032E00072D09DF8010001286FD19DF800000828D8
:1032F0007FD006DC06286AD2DFE800F0C10C481156
:10330000371C102873D0112820D0122810D019286B
:103310005DD112E0A5480068C017401C38BDA34825
:10332000006810F0004F01D00020F7E70420F5E717
:103330000820F3E74FF0FF30F0E79C48006810F0FA
:10334000004F01D00020E9E71020E7E79748006828
:1033500010F0004F07D19548006840F008009349ED
:1033600008600120DAE70020D8E79048006810F0F4
:10337000007F01D04020D1E78C48006810F0004F5A
:1033800002D04FF40070C9E70020C7E78748006803
:1033900010F0804F09D18548006810F0806F04D18B
:1033A0008248006810F0005F01D00020B6E77F4837
:1033B000006810F0805F04D17C48006810F0006F56
:1033C00006D04FF40020A9E7DBE05BE011E056E017
:1033D0007648006810F0004F02D04FF480709DE7EF
:1033E0007248006810F0007F02D0202096E727E0A6
:1033F00047E06E48006810F0005F09D16B48006834
:1034000010F0806F04D16948006810F0804F01D03F
:10341000002083E76548006810F0805F04D16348AE
:10342000006810F0006F02D04FF4003076E75F487C
:10343000006810F0004F02D04FF480606EE720E08B
:103440005A48006810F0004F18D05848006810F033
:10345000006F02D04FF4801060E75448006810F00D
:10346000806F01D0524859E75048006810F0005F63
:1034700001D0504852E74FF400604FE701E00020D0
:103480004CE700BF9DF8010002287AD19DF80000AA
:10349000042838D004DC012807D0022874D114E0B5
:1034A000082857D010286FD151E04048006810F02C
:1034B000007F01D0802031E73C48006810F0004FC9
:1034C00001D002202AE7012028E73848006810F0E0
:1034D000006F03D038480078042809D133480068C9
:1034E00010F0804F04D13148006810F0806F00D098
:1034F0004CE02E48006810F0004F02D04FF00070F2
:103500000CE700200AE72948006810F0006F03D09C
:1035100029480078042809D12448006810F0804F19
:1035200004D12248006810F0806F00D02EE01F48C0
:10353000006810F0004F09D01C48006810F0005FD0
:1035400001D00020EAE64FF48050E7E61EE04FF499
:103550008000E3E61548006810F0004F13D01348D0
:10356000006810F0005F0ED11048006810F0806F06
:1035700009D10E48006810F0804F04D14FF40010BC
:10358000CCE604E000E000BF0020C7E600BF00205A
:10359000C4E6000090DD072015D3000015D100001F
:1035A0000DD30000F1D3000095D4000028C10720FE
:1035B000000800800010008012C1072010B50246EC
:1035C000FE4B9B7A03F08003FC4CA3722346DB7A0C
:1035D00003F08803E3720023237302B910BD0020B7
:1035E000DAE0012303FA00F102EA01038B4274D10D
:1035F000B1F5806F72D01ADC202959D00CDC042977
:1036000041D004DC012930D0022934D134E008292A
:1036100040D01029F9D144E0402950D0802955D01C
:10362000B1F5807F5BD0B1F5007FEED15EE0B1F502
:10363000004F70D00CDCB1F5006F65D0B1F5805F44
:103640006CD0B1F5005F70D0B1F5804FDDD176E080
:10365000B1F5803F70D0B1F5003F6ED0B1F5802F4D
:103660006CD0B1F5002F06D18CE0D44BDB7A43F05F
:103670001003D24CE3728CE0D04BDB7A43F0200392
:10368000CE4CE37285E0CD4BDB7A43F04003CB4C6C
:10369000E3727EE0C94B9B7A43F00103C74CA372EF
:1036A00077E0C64B9B7A43F01003C44CA37270E0E2
:1036B000C24BDB7A43F00403C04CE37269E0BF4BBA
:1036C0009B7A43F00203BD4CA37262E0BB4B9B7A32
:1036D00043F02003B94CA3725BE05BE00DE0B74B15
:1036E000DB7A43F00103B54CE37252E0B34BDB7A73
:1036F00043F00203B14CE3724BE0B04B9B7A43F0D2
:103700000803AE4CA37244E0AC4B9B7A43F0040335
:10371000AA4CA3723DE019E000E006E0A74B9B7ABB
:1037200043F04003A54CA37233E0A44B1B7B43F052
:103730000103A24C23732CE00FE015E01BE09F4B2C
:103740001B7B43F002039D4C237322E09B4B1B7BAE
:1037500043F00403994C23731BE0984B1B7B43F00D
:103760000803964C237314E0944B1B7B43F0200317
:10377000924C23730DE0914B1B7B43F040038F4C25
:10378000237306E08D4B1B7B43F080038B4C23732C
:1037900000BF00BF431CD8B22028FFF622AF00BFF5
:1037A0001CE72DE9F0410546284607F0A5F800F092
:1037B000FF0828788249085C8049087001240126A6
:1037C00010E0285D7E490F5C601C285C2E2803D128
:1037D00047F08007601CC4B278488755601CC4B2AB
:1037E000701CC6B2444501DA082EEADBBDE8F08160
:1037F0000146002003E0714A1154421CD0B20F2848
:10380000F9DB704710B50020FFF7F2FFFDF70CF968
:1038100010BD10B5FF20FFF7EBFFFDF705F910BD58
:1038200010B5FDF7EDF810BD10B5FDF7EEF810BDC1
:103830006448C06940F400306249C861704761481B
:10384000806940F400305F498861704701465C48F8
:10385000405C70471CB500208DF8000011208DF8E9
:10386000010001208DF8040000208DF802008DF881
:103870000300684605F0CCF9FFF7E1FFFDF750F8CB
:10388000FDF7B9F8FDF7CBF81CBD70B50446002074
:103890004A49087248720A2094FBF0F0C5B20A2027
:1038A00095FBF0F03030C2B21046FFF7CFFF43492E
:1038B00008720A2095FBF0F100FB11503030C2B2C3
:1038C0001046FFF7C3FF3D4948720846007A40F0B2
:1038D00080000872FDF7A8F870BD10B5044637489F
:1038E000C07A00F077003549C8720846807A40F007
:1038F00080008872032C05D10846C07A40F0080089
:10390000C87205E02D48C07A40F080002B49C8728B
:10391000FDF78AF810BD2DE9FC5F83460024A2461E
:10392000584607F0C9FA05460022134607F0D8FAB0
:1039300000D25EE0584607F0BFFA05460022224B4F
:1039400007F0E2FA02D24FF00A0912E0584607F0F7
:10395000B3FA07461D4A1E4B07F0DBF800221D4B49
:10396000CDE9000107F07CF9054607F086FA4FFA29
:1039700080F9B9F10B0F37D2DFE809F034311E1BA3
:103980001815120F0C0906004AF0010A00BF4AF090
:10399000080A00BF44F0800400BF44F0400400BFA8
:1039A00044F0200400BF44F0100400BF44F00804B9
:1039B00000BF44F0040400BF0EE00000F0DD07206B
:1039C000C8DD000000C009200000F03F9A999999D5
:1039D0009999A93F0000244044F0020400BF44F03C
:1039E000010400BF00BF02E00024A24600BF00BFE8
:1039F00000BFFB48407A40F08000F9494872084611
:103A0000447380F80EA0FDF70FF8BDE8FC9F10B5D9
:103A1000FFF7F8FEF349898988B2FFF736FFF149CD
:103A2000887BFFF75AFF0021EE48801C07F086FED6
:103A30004FF47A70DFF8B0C300DF10BD10B500227C
:103A4000EA4BEBA1ED4808F06FFD0021EB4807F0D1
:103A500075FE10BD2DE9F04106460F464FF00108F6
:103A600000250FE0705D44B22D2C09D02B2C07D01F
:103A70002E2C05D0302C03D0202C01D04FF0000884
:103A8000681C45B2092DEDDB0725082432E0305DC6
:103A90002B2804D02D280DD02E2820D115E0B8F1E8
:103AA000000F01D147F00107D54890F82000CC491C
:103AB00048551AE0B8F1000F01D147F00207D0488D
:103AC00090F82000C64948550FE0601E44B2305DB2
:103AD000CB49085C40F08000C149485505E0305DA5
:103AE000C749085CBE49485500BF00BF681E45B2C3
:103AF000601E44B2002DCADA3846FFF75FFDBDE80C
:103B0000F081F8B5BF48007830B1012816D00228FE
:103B100028D003284AD135E0BB48006807F0CCF92B
:103B200004460B46B948006822460168B34808F0CD
:103B3000FBFC4FF40060B649088037E0B5480068E8
:103B400007F0BAF90646B44AB44B07F0FBF804464E
:103B500022460B46B2A1A94808F0E6FC8020AC49F9
:103B6000088023E0B048006807F0A6F90446224622
:103B70000B46AEA1A14808F0D7FC4FF40150A44970
:103B8000088013E0AC4800680090AB484368ABA1E4
:103B900082689A4808F0C8FC4FF400409C490880AD
:103BA00008460188954807F0C9FD00BF00BFA84836
:103BB000006810F0040F05D19248007810B9002079
:103BC000934908800021A348006807F0CDF905D08B
:103BD0008F48008840F080008D4908809E48C07A58
:103BE000022805D18A48008840F0100088490880E2
:103BF000874801888148FFF72DFFFCF715FFF8BDC6
:103C00002DE9F05F9548006807F056F90446002258
:103C1000134607F065F907D17C4800680022016966
:103C2000764808F081FC24E08D498E4A1278885C41
:103C300007F000F9834674480168584606F0F3FE21
:103C4000824686480168504606F023FF814607F009
:103C500033F907460022844B06F05BFF054607F068
:103C60000CF904466948006822460169634808F077
:103C70005BFC182066490880084601885F48FFF70A
:103C8000E9FEFCF7D1FEBDE8F09F2DE9F05F734837
:103C9000006807F011F904460022134607F020F9E6
:103CA00007D15A48006800224169544808F03CFC9A
:103CB0001CE06A48006807F0FFF804460D465248C9
:103CC000006807F0F9F880460022684B06F0C8FF4C
:103CD000064622462B4607F035F882460B464B48EF
:103CE000006852464169454808F01EFC20204849BA
:103CF0000880084601884148FFF7ACFEFCF794FEB7
:103D0000BDE8F09F08B54C48C06800904A488369F8
:103D100057A1C269394808F007FC4FF480403C497C
:103D2000088008460188354807F008FD08BD08B539
:103D30004148006800904048436840A182682F488D
:103D400008F0F2FB4FF40040314908800846018832
:103D50002A4807F0F3FC08BD70B53348006807F047
:103D6000ABF8044622460B4630A1244808F0DCFBA1
:103D70004FF4015026490880084601881F4807F083
:103D8000DDFC70BD10B504213DA007F0D7FC10BDCF
:103D900010B52F48006810F4805F0DD0FCF73AFE94
:103DA0001A48006800220168144808F0BDFB002191
:103DB000124807F0C3FC03E0FCF731FEFFF7E2FF17
:103DC00010BD10B5002131A007F0B8FC4FF4FA6027
:103DD000DFF814C000DF01202F49087010BD00007B
:103DE000F0DD072064DE000015D100000000E83F90
:103DF0005665722025332E3266000000FFDD072055
:103E0000C8DD000008C10720B8C0072000C1072096
:103E1000D8C007209CC007209A999999E9D51C41E0
:103E2000252B392E326600000CC0072020202020D0
:103E300020252B322E31660024C507202025303264
:103E4000642E253032642E253032642000000000BC
:103E500028C1072080C0072062DD0720ACC00720F2
:103E600030E0000009C107200000E03F0000594099
:103E70002534642E253032642E2530326400000053
:103E80002D2D2D2D2D2D2D2D000000002020204327
:103E9000414C20200000000094C0072010B50021F4
:103EA000F6A007F04BFCF848C06940F48020F649C2
:103EB000C861C820DFF8D4C300DFF348806940F44C
:103EC0008020F14988614FF47A70DFF8C0C300DFC9
:103ED000FCF7A5FD10BD70B5ED484079012804D070
:103EE000EC48006810F0805F26D0EA48006810F4C3
:103EF000806F08D0FCF793FD4FF00411AFF2800003
:103F000007F01CFC20E0FCF785FDE349B1F9100047
:103F100006F087FF064606F0CFFF04460B46DF4853
:103F2000006822460168DE4808F0FEFA4FF481215D
:103F3000DB4807F003FC07E0FCF771FD4FF00411CC
:103F4000AFF2C40007F0FAFB70BD10B5D04840795D
:103F5000012804D0CF48006810F0805F1DD0CD4804
:103F6000006810F4806F08D0FCF759FD4FF0041181
:103F7000AFF2F40007F0E2FB17E0FCF74BFDC74897
:103F80000068002213460168C54808F0CDFA4FF4D6
:103F90008121C34807F0D2FB07E0FCF740FD4FF05A
:103FA0000411AFF2241007F0C9FB10BD3EB5B948AB
:103FB000006810F0006F00D13EBDBA480068801D57
:103FC000B94991F900104056B84901EB0014E07A64
:103FD000042825D1B44890F90000022820DB684667
:103FE000216806F090FCB0480078022807D1B0485C
:103FF000007B421CAFA10DF1060008F095FAAA481B
:104000000078032807D1AA48407B421CA9A10DF1E2
:10401000060008F089FA6846E16807F08FFB03E0C4
:10402000E168206807F08AFB00BFC5E710B5994832
:10403000006810F4807F0ED0002405E09F48005DEA
:104040009F490855601C44B2082CF7DB0020FFF79D
:10405000B5FAFCF7E9FC8F48006810F4007F0ED039
:10406000002405E09748005D95490855601C44B25E
:10407000082CF7DB0020FFF7A1FAFCF7D5FC10BDF8
:10408000FEB505460C464FF48036022D0BD1224674
:104090008DA1684608F048FA8548007B401CA04284
:1040A00001D146F08006032D0BD1224689A1684636
:1040B00008F03AFA7E48407B401CA04201D146F00D
:1040C00080063146684607F039FBFEBDFEB5044662
:1040D0000D4683480078042811D124B92A4681A1CD
:1040E000684608F021FA012C04D12A4680A16846CE
:1040F00008F01AFA4FF48031684607F01FFB784841
:10410000007800283DD1022C3BDA012D04D0022D8D
:1041100003D0032D34D120E000BF7848006806F0BA
:10412000CBFE06460B465D480068324601685C4897
:1041300008F0FAF95748006810F0040F05D14FF461
:1041400080315748FFF786FC04E04FF4843154482F
:10415000FFF780FCFCF768FC12E05549886806F020
:10416000ABFE06460B464D480068324681696846FC
:1041700008F0DAF94FF48C31684607F0DFFA00BF37
:1041800000BFFEBD3EB504461CB95DA1684608F0FF
:10419000CBF9012C03D15DA1684608F0C5F95E4951
:1041A000684607F0CBFA4FF4FA60DFF8E0C000DFB2
:1041B0003EBD70B505460C46012D06D0022D18D027
:1041C000042D24D0082D30D109E0002153A007F0A0
:1041D000B5FA40F6B830DFF8B4C000DF25E00021C2
:1041E00051A007F0ABFA40F6B830DFF8A0C000DF0E
:1041F0001BE02948143030F914204EA1284808F05B
:1042000093F94FF40061264807F098FA0DE0224830
:10421000143030F9142047A1214808F085F940F600
:1042200004011F4807F08AFA00BF00BF70BD70B5D7
:1042300000251CE0681CC11700EB5171C910A0EBF0
:10424000C1014DB2002404E000201D490855601C46
:10425000C4B2082CF8DB4020194948554003FFF749
:10426000ADF9FCF7E1FB6420DFF820C000DF09486E
:10427000006810F4004FDDD170BD000043414C20B8
:10428000646F6E450000000000C0092015D10000D9
:1042900062DD072028C1072064DE000000C107207E
:1042A000FFDD07200CC1072011C1072038E0000006
:1042B0007CDC0720253032640000000052DE000064
:1042C000F0DD07205ADE000020205353642D2530F6
:1042D000326400002020534C642D253032640000ED
:1042E00013C1072020536F6C69642D256400000002
:1042F0004C69717569642D2564000000B8C0072001
:1043000053642D5341564564000000004C642D5306
:104310004156456400000000040001004C696E45F0
:10432000206F6E20000000004C696E45206F6666AD
:10433000000000004C696E45202533640000000039
:1043400008B550216B48DFF8B0C100DF00BF4FF661
:10435000FF7269466748DFF8A4C100DF684800685B
:1043600010F0004F0BD06648006810F0805F06D157
:104370006348006810F0005F01D1FFF758FF009814
:10438000B0F5007F59D014DC20286ED009DC5D49DF
:1043900040186BD05B493C31401844D00C2841D1C7
:1043A00048E040285DD080281CD0B0F5807FF6D151
:1043B0004AE0B0F5005F74D009DCB0F5806F51D0F1
:1043C000B0F5006F53D0B0F5805FE8D179E0B0F57B
:1043D000804F67D0A0F10050203869D0B0F1005F65
:1043E000DDD168E0484890F9000030B102280CD0D7
:1043F000032807D0042814D10AE0FFF782FB01F05C
:1044000096F90EE0FFF741FC0BE0FFF7F9FB08E03F
:104410003E4A1278521CD1B23D4A1078FFF756FE40
:1044200000BF00BF64E038480078012801D0FFF7E2
:10443000FDFD5DE0FFF7BAFD5AE03348007805283E
:1044400001D1FFF789FC53E02F480078062801D1FD
:10445000FFF758FC2C480078072801D1FFF767FCCC
:1044600046E000BFFFF794FC42E01CE026E029494B
:10447000B1F90C0006F0D5FC07462748816838469C
:1044800006F007FB0546254801682548006806F048
:10449000C4FA0646294606F0FCFA0446FFF73BFA42
:1044A00026E017E01FE0FFF78CFCFFF714FD1FE08C
:1044B000FFF711FD1CE0FFF748FD19E0FFF7EEFCE8
:1044C00016E0184A1278521CD1B2114A1078FFF740
:1044D000D7FD0DE00D4A1278521CD1B20C4A10786B
:1044E000FFF7F4FD04E00A490878FFF74BFE00BF30
:1044F0002DE700000CDE072015D3000095D4000046
:1045000028C10720E0FFFF7F12C107200AC1072052
:1045100014C1072064DE00006FDD0720B4C007204F
:10452000A4C0072011C107200120FE49086000BF78
:10453000C820FEF7CCFE0446B4F5006F7AD01EDC2E
:10454000042C78D00FDCB4F1FF3F36D006DCF648FF
:10455000201871D0B0F5006F6FD1ECE0012C52D073
:10456000022CF9D16AE0102C3AD0B4F5807F78D0D3
:10457000B4F5007F76D0B4F5806FEDD1A8E0B4F546
:10458000002F70D00CDCB4F5805F6DD0B4F5803FA7
:104590006BD0B4F5003F69D0B4F5802FDCD17FE05B
:1045A000B4F5801F7DD0B4F5001F74D0B4F5800F32
:1045B00072D0B4F1007FCFD1E9E0DC48C06940F4AB
:1045C0008020DA49C8616420DFF864C300DFD7487F
:1045D000806940F48020D549886101F001F8EAE063
:1045E000D248C06940F48020D049C8616420DFF817
:1045F00040C300DFCD48806940F48020CB4988610A
:1046000001F008F8D7E0C948C06940F48020C749E4
:10461000C8616420DFF818C300DFC448806940F433
:104620008020C2498861C349096801F0080000F090
:1046300053FBC0E05FE01AE070E0BBE0BB48C0693C
:1046400040F48020B949C861FA20DFF8E4C200DFF5
:10465000B648806940F48020B449886100F057FB77
:10466000A9E022E06AE019E05BE016E017E0AF485D
:10467000C06940F48020AD49C8616420DFF8B0C251
:1046800000DFAA48806940F48020A849886100F0D2
:104690004FFB90E005E054E066E000BF00BF00BFC4
:1046A00000BF204600F0A4FC85E0A048C06940F4AB
:1046B00080209E49C8613220DFF874C200DF9B4829
:1046C000806940F480209949886100F078FC72E0AC
:1046D0009648C06940F480209449C8613220DFF8D0
:1046E00050C200DF9148806940F480208F49886182
:1046F00000F02CFB5FE08D48C06940F480208B49BE
:10470000C8613220DFF828C200DF8848806940F4A1
:1047100080208649886100F033FB4CE000F055FBB7
:1047200049E085480078042802D100F06DFB01E0E3
:1047300000F0AFFB3FE000F028FC3CE001F018F98E
:1047400039E07A48C06940F480207849C861322055
:10475000DFF8DCC100DF7548806940F480207349D0
:10476000886100F0FBFE26E07048C06940F48020BC
:104770006E49C8616420DFF8B8C100DF6B4880690A
:1047800040F480206949886100F012FF13E0674817
:10479000C06940F480206549C8616420DFF890C199
:1047A00000DF6248806940F480206049886100F041
:1047B00013FF00E000BF00BF5A48006801287FF4E3
:1047C000B7AE0020574908605848C06940F48020BF
:1047D0005649C8616420DFF858C100DF534880693A
:1047E00040F48020514988615249096801F008006D
:1047F00000F072FA9CE61CB501224021002005F071
:10480000ABFD4A48C06940F040004849C8610122F8
:104810004915002005F0A0FD4448806940F48070EF
:104820004249886100208DF8000012208DF80100B7
:1048300001208DF8040000208DF802008DF803009F
:10484000684604F0E5F93948806940F4802037492A
:1048500088611CBD10B564210020DFF8E0C000DFD6
:1048600001210020DFF8D4C000DFFEF7F3FFFEF7E0
:10487000B9F9FCF76DFAFFF7BEFF10BDFFF7EAFFCD
:104880002A48C06940F480202849C8616420DFF8C4
:10489000A0C000DF2548806940F48020234988615A
:1048A00000231A4601212648DFF898C000DF264978
:1048B00008600023254A2649AFF29330DFF884C010
:1048C00000DF244908600023234A21492348DFF8F8
:1048D00074C000DF224908600023224A1C49224894
:1048E000DFF860C000DF214908600023204A184932
:1048F0002048DFF850C000DF1F49086000231A4637
:1049000001211E48DFF83CC000DF1D49086000237C
:104910001A4602211B48DFF82CC000DF1A49086044
:10492000012133E020C1072000F8FF7F00C00920EB
:1049300015D1000028C1072012C1072045DC000066
:104940004532000061DB0000DCC0072060DE07208C
:1049500001000200E0C0072060E00720D110000045
:10496000E4C0072060E20720F7180000ECC0072031
:1049700060E4072041430000E8C00720F71300006F
:10498000F4C0072051080000F0C00720384805F0A7
:1049900072FCB0F1A53F0ED100220121344805F090
:1049A00049FC4FF47A70DFF8CCC000DF01203249B7
:1049B00008603249086000BF3148006810F4004FB9
:1049C00034D000202F4908602BE02F48C06940F404
:1049D00080702D49C86100202C49086004E02B48F4
:1049E0000068401C29490860284800680F28F6DB49
:1049F0002548806940F4807023498861002023495C
:104A0000086004E021480068401C204908601F48F5
:104A10000068B0F57A6FF5DB1A480068401C194948
:104A2000086018480068B0F5E16FCEDB1648806971
:104A300040F04000144988616420DFF838C000DF8E
:104A40001148C06940F040000F49C8614FF46170DF
:104A5000DFF820C000DFAFE710B5FBF747FB00220F
:104A60001146AFF2E710DFF828C000DF002010BDCC
:104A70000040024015D1000020C1072024C10720BA
:104A800028C10720F8C0072000C00920FCC007206B
:104A900089D900000320124948820846B0F9120063
:104AA000032806DA0F4810490860104810490860CA
:104AB00015E00B48B0F91200C0EBC00009495439A9
:104AC00001EB8000084908600548B0F91200C0EB0E
:104AD000C0000649543901EB800005490860704761
:104AE0006FDD0720ECDE000000C1072094DF00002E
:104AF00004C107200020FE490860FE490870FE49F5
:104B00000870FE490870704710B546E0FC48C0695F
:104B100040F48020FA49C8613220DFF8E8C300DFA2
:104B2000F748806940F48020F54988613220DFF839
:104B3000D4C300DFF248C06940F48020F049C86166
:104B40003220DFF8C0C300DFED48806940F48020E8
:104B5000EB49886100BF0020EB4908600420FEF7A4
:104B60002DFDFBF761FFE648C06940F48020E44971
:104B7000C8616420DFF88CC300DFE148806940F43D
:104B80008020DF4988610120FEF70AFA4FF47A702D
:104B9000DFF870C300DF00BF00BFFEF7DEF90028BA
:104BA000B4D010BD10B50021D8A006F0C7FDFA2082
:104BB000DFF850C300DF0021D7A006F0BFFDFA20C8
:104BC000DFF840C300DF0021D6A006F0B7FDFFF7F5
:104BD0009BFFFA20DFF82CC300DF0021D4A006F0F1
:104BE000ADFDFA20DFF81CC300DF10BDD348007F05
:104BF000D3490873D148407F48730846007B082892
:104C000002D1CE48406904E0CC48007FCD4951F83C
:104C10002000CB49C1F80E000846407B082802D18D
:104C2000C648806904E0C548407FC74951F8200064
:104C3000C349C1F81200704710B5FCF797FEFCF7A6
:104C40004FF8FFF7D3FF4FF49670C049086010BDCE
:104C5000BA480068BE49086008460068BD49086057
:104C60000020BD490860704710B50020BB490860AE
:104C7000FEF7F0FDFEF7D4FDFEF7DAFDFEF7C9FD05
:104C800040F2DC50DFF87CC200DFFEF7C0FE4FF4DC
:104C90007A70DFF870C200DFFFF784FFFEF778F963
:104CA000FFF7D6FFFFF7F6FEFFF7C6FFAC4989898D
:104CB00088B2FEF7EAFDA149887CFEF70EFEFBF7FD
:104CC00085FBFFF717FFA548006840F00040A349A7
:104CD0000860FCF77DFC10BD10B504460020874934
:104CE0000870A0490870FFF7BFFFFEF7A5FA012082
:104CF000FCF724F954B100209549086095490860F3
:104D00009648006840F008009449086010BD10B54E
:104D10000020FCF713F9FEF775FDFEF785FDFEF7A1
:104D20008EFD8E48006820F000408C49086010BD60
:104D300010B5FFF799FF8948006840F08050874917
:104D4000086001F0A0FDFFF7E2FF10BD8348006896
:104D500010F0804F00D070478048006840F08040DD
:104D60007E4908608048DFF804C200DF30B14FF6AA
:104D7000FF7240217C48DFF8F8C100DF00BFEAE79E
:104D80007648006810F0806F00D070477348006864
:104D900040F48040714908600846006840F0806037
:104DA00008600846006820F4805008606E48DFF80C
:104DB000BCC100DF38B14FF6FF724FF480616A4822
:104DC000DFF8ACC100DF00BFDFE710B54C48C069B9
:104DD00040F480204A49C8616420DFF828C100DF20
:104DE0004748806940F48020454988615B480068F5
:104DF00020F08060594908600846006820F480501F
:104E00000860FBF70CFE10BD10B55A4890F9000081
:104E1000022800DB10BD5748007818B94848806860
:104E20004649486153480078012803D144488068C6
:104E3000424988610020FDF7B0FF4FF4FA70DFF8B7
:104E4000C4C000DF0220FEF70FF84FF4FA70DFF85D
:104E5000B4C000DF2A48C06940F480202849C861F6
:104E60006420DFF8A0C000DF2548806940F480207E
:104E7000234988613C48DFF8F4C000DF38B14FF6C1
:104E8000FF724FF480413848DFF8E4C000DF00BF14
:104E9000C0E73248006810F0005F00D07047184843
:104EA000C06940F480201649C8616420DFF854C00E
:104EB00000DF1348806940F4802011498861274849
:104EC000006820F480602549086000202A490870A5
:104ED0002248006840F00050204908602248DFF86E
:104EE0008CC000DF10B14FF6FF7247E04BE00000CE
:104EF0000CC1072011C1072019C1072012C10720CA
:104F000000C0092015D1000024C1072020204543FE
:104F10002D31202000000000202045432D3220208C
:104F200000000000202045432D3320200000000019
:104F3000202045432D342020000000006FDD072095
:104F40007CDC0720E8DF00000CE000004CC00720FC
:104F5000B4C0072074C0072070C0072028C10720F4
:104F600064DE000008C107200CDE07200DD300001E
:104F7000F1D3000014C1072094C007202021FB4872
:104F8000DFF8ECC300DF00BF88E710B5F948C0695F
:104F900040F48020F749C8616420DFF8DCC300DFFB
:104FA000F448806940F48020F2498861F348006841
:104FB00020F00050F1490860FBF731FD10BDF049C9
:104FC0000978481CC11700EB91718910A0EB810191
:104FD000EB4A1170E548DFF8ACC300DF38B14FF69B
:104FE000FF724FF40061E148DFF884C300DF7047CF
:104FF00070B50446B4F5802F7ED006DCB4F5803F52
:105000000AD0B4F5003F2AD163E0B4F5002F27D0D1
:10501000B4F5801FF7D18CE1D648C06940F48020F8
:10502000D449C8616420DFF850C300DFD1488069EB
:1050300040F48020CF498861D048006840F000608B
:10504000CE490860D048D1490860084600684079D8
:10505000CF4908700020CF490870CF490870E9E1B6
:10506000CA4800684079A8B9CC48007880BBC148DC
:10507000C06940F48020BF49C8613220DFF8F8C21F
:1050800000DFBC48806940F48020BA498861FFF79E
:1050900096FF70BDB748C06940F48020B549C8612B
:1050A0003220DFF8D4C200DFB248806940F48020AB
:1050B000B0498861B74890F90000401CB44991F9A3
:1050C000001090FBF1F201FB120040B2B1490870F0
:1050D000B0E1A848C06940F48020A649C8613220E8
:1050E000DFF894C200DFA348806940F48020A14922
:1050F0008861AA48007800E082E104287ED1A848AF
:1051000090F9000030B1012808D0022863D00328AC
:1051100060D161E00020A349086000BFA248007888
:10512000401CA149087008460078012804D00228D4
:1051300007D003284AD12EE09C4800689C490860AB
:1051400044E09A48006880F00040994948609448DB
:10515000007868B90A46D2F81210106805F063FCAE
:10516000054693484168284605F093FC90498860BD
:105170008B48007801280DD18D4AD2F80E10506866
:1051800005F051FC05468A480168284605F081FC77
:10519000874988601AE07D48006890F904007A49E0
:1051A00001EB0010794908600846006840797849A9
:1051B000087079480078401E40B2774908707D48F1
:1051C00091F90010405C7349087000BF00BF0420D3
:1051D0007949087060E000BF71480078022819D151
:1051E0006C480078724908730846007B7349087759
:1051F0006F48007B082804D1084600E04EE0406973
:1052000004E06E48007F6E4951F820006849C1F8FB
:105210000E0016E05F480078654948730846407BF9
:10522000664948776248407B082802D10846806971
:1052300004E06248407F634951F820005C49C1F8AE
:1052400012000020FDF7A9FD4FF4FA70DFF828C125
:1052500000DF0220FDF708FE4FF4FA70DFF818C1F6
:1052600000DF4A48006890F90400474901EB00104C
:105270004649086008460068407945490870464834
:105280000078401E40B2444908704A4891F9001025
:10529000405C4049087000BF00BFCBE03B4800685D
:1052A000407960B93D48007828B938480068C07A2C
:1052B0003A49087002E0002038490870E9E63348AE
:1052C0000068801D334991F9001040562E4901EBCA
:1052D00000102E4908600846006840792C49087083
:1052E0002C4890F900002E4908702A4890F90010C7
:1052F0003048294A92F90020815427480078401C00
:1053000040B2254908700020224908701F480068F3
:10531000C07A04280CD12248007818B120480078BF
:10532000012805D100202049087004202249087076
:1053300080E01048C06940F480200E49C8616420B4
:10534000DFF834C000DF0B48806940F48020094951
:1053500088610E48006890F90400401C4FD00F4847
:10536000007810B9FFF7F2FC93E62DE00CDE072081
:10537000F1D3000000C0092015D1000028C107208A
:1053800008C107200DD3000038E000000CC1072041
:1053900010C1072011C1072019C1072012C1072021
:1053A00014C1072070C007200AC10720B8C0072019
:1053B0007CDC072015C1072013C107206FDD072003
:1053C000E8DF00000CE00000FE48006890F90400EF
:1053D000FD4901EB0010FB49086008460068407970
:1053E000FA490870FA480078401E40B2F84908703F
:1053F000F84891F90010405CF74908701AE000BFC6
:10540000F648C06940F48020F449C8616420DFF8A0
:10541000D0C300DFF148806940F48020EF49886103
:105420000020E8490860EF48006820F00060ED497E
:10543000086000BF00BFE3480068C07AEA4908700E
:10544000084690F9000008280ED2DFE800F0840E2C
:105450000504381B292A00BFE4480078E449087095
:10546000E4480068E449086075E0E448DFF890C368
:1054700000DF30B14FF6FF721021E048DFF884C33F
:1054800000DF68E0DD48DFF878C300DF38B14FF6B1
:10549000FF724FF40071D948DFF868C300DF5AE0AB
:1054A00000BFD648DFF858C300DF38B14FF6FF72AF
:1054B0004FF48071D148DFF84CC300DF4BE0CB489C
:1054C00090F9000030B1012805D0022832D003281D
:1054D0003FD130E000BFC948DFF824C300DF38B156
:1054E0004FF6FF724FF40051C448DFF818C300DFD5
:1054F0004FF47A70DFF8E8C200DFC348007820B1CB
:1055000001280BD0022813D10EE00020BF4908600B
:10551000FFF736FC0020BE49087009E0FFF716FCD3
:105520000020BB49087003E00020B949087000BFA3
:1055300000BF0EE000BFB148DFF8C4C200DF38B1E1
:105540004FF6FF724FF48051AC48DFF8B8C200DF6D
:1055500000BF00BF00BF00BF00BF9AE510B5AD4857
:10556000408A042803D10320AA49488202E004208B
:10557000A84948820020FDF710FC4FF4FA70DFF8CC
:1055800060C200DF0220FDF76FFC4FF4FA70DFF815
:1055900050C200DFFFF77EFA9F49898988B2FEF783
:1055A00074F99C49887CFEF798F9FCF7DFF910BD87
:1055B00010B59A48C07A012802D002280AD105E025
:1055C000FAF704FF02209549C87203E001209349CD
:1055D000C87200BF00BF10BD10B5FBF771FC10BD55
:1055E00010B5FEF71DF9FEF70DF9FEF721F90021C0
:1055F0008BA006F0A3F84FF0A53201218B4804F0F0
:1056000019FEDFF82CC200DF72B6FDF70FFDFDF7C3
:10561000F9FD10BD7FB5FEF703F9FEF7F3F8FEF7CD
:1056200007F97048006840F000706E490860FDF7A7
:10563000AFFC7848807F44B200BFFA20FDF747FEF8
:105640000546202D04D0402D15D0802D5ED125E0BB
:105650006248C06940F480206049C8616420DFF876
:1056600080C100DF5D48806940F480205B4988612B
:10567000601E44B24AE05948C06940F4802057494E
:10568000C8616420DFF858C100DF5448806940F4E5
:10569000802052498861601C44B237E04F48C0699D
:1056A00040F480204D49C861FA20DFF834C100DFA2
:1056B0004A48806940F48020484988615548807F85
:1056C000A04209D100215BA006F038F840F2DC507E
:1056D000DFF80CC100DF10E04E498C770020FDF7A9
:1056E0005CFB002156A006F029F840F2DC50DFF800
:1056F000F0C000DF0220FDF7B7FB3A48006820F059
:10570000007038490860FFF702FB7FBD00BF032C23
:1057100000DA1024102C00DD032422464BA1684639
:1057200006F002FF0021684606F008F885E72DE93B
:10573000F04385B039488079022802DC05B0BDE825
:10574000F08336488079032808D0344880790428CB
:1057500036D12448006810F0040F31D03E4800785C
:10576000052818D2DFE800F0031887A1BB00214804
:10577000006805F0A1FB05460B46384800682A463C
:1057800001680DF1020006F0CFFE67208DF80C00D5
:1057900020208DF80D00BCE01648006805F08CFB59
:1057A00007462F4A2F4B05F0CDFA05460B462B48EE
:1057B00000682A4641680DF1020006F0B5FE53E08C
:1057C000D4E000000CC1072038E0000010C1072021
:1057D00019C1072015C1072011C1072000C00920E9
:1057E00015D1000028C1072012C1072014C10720CD
:1057F00009C10720B8C00720ACC007200CDE072075
:105800000DD30000F1D300000AC1072070C00720AB
:1058100013C107206FDD072064DE000062DD072072
:10582000202D20495350202D200000000040024030
:10583000F5DB0000202D515549542D2000000000BB
:10584000202D534156452D200000000043722E2D7F
:105850002D2D2D253032640008C1072000C10720FE
:105860001B12F7587A597C4070208DF80C002020CC
:105870008DF80D004DE0F748006805F01DFB074668
:10588000F54AF64B05F05EFA05460B46F44800680B
:105890002A4681680DF1020006F046FE6F208DF861
:1058A0000C007A208DF80D0033E0EA48006805F01E
:1058B00003FB0546EB4AEC4B05F044FA07460B4662
:1058C000E74800683A4681680DF1020006F02CFEB8
:1058D00067208DF80C007A208DF80D0019E0DD4866
:1058E000006805F0E9FA07460022E04B05F0B8F938
:1058F00005460B46DA4800682A46C1680DF10200E9
:1059000006F012FE63208DF80C0074208DF80D0057
:1059100000BF00BF02240FE01DF80490B9F12D0F65
:1059200002D0B9F12B0F05D18DF8009020200DF891
:10593000040003E0601CC4B26F2CEDDB00BF20202C
:105940008DF801008DF80B000D208DF80E000A2057
:105950008DF80F0000208DF81000684604F0CCFF91
:10596000C5B22A466946C248FBF74FFF00BFE5E6CD
:10597000F0B587B0BF488079022801DD07B0F0BDDF
:1059800003E00A20DFF8F0C200DFBC48006810F036
:10599000040FF6D0B948006810F0006F7DD0B84809
:1059A00090F9000002284DD0032802D0042848D1E5
:1059B000A3E0B4A0FBF792FFB7A0FBF78FFFBBA05B
:1059C000FBF78CFFBA48006805F076FA06460B46EE
:1059D000A348006832460168684606F0A5FD68469F
:1059E000FBF77CFFB3A0FBF779FFB4A0FBF776FFD2
:1059F000B7A0FBF773FFADA0FBF770FF95480068F9
:105A000005F05AFA06460B4695480068324601688A
:105A1000684606F089FD6846FBF760FFA5A0FBF726
:105A20005DFFA2A0FBF75AFFAE49684606F07CFD79
:105A30006846FBF753FFACA0FBF750FFACA0FBF7A9
:105A40004DFF6DE0B0A0FBF749FF93A0FBF746FFC9
:105A500096A0FBF743FF9648006805F02DFA06462E
:105A60000B467F48006832460168684606F05CFDD8
:105A70006846FBF733FF8FA0FBF730FF8BA0FBF7E7
:105A80002DFFA648A64B1B78C25C754800680169CB
:105A9000684606F049FD684600E042E0FBF71EFF5D
:105AA000A0A0FBF71BFF8AA0FBF718FF7FA0FBF766
:105AB00015FF6848006805F0FFF906460B46684880
:105AC000006832460168684606F02EFD6846FBF71E
:105AD00005FF78A0FBF702FF74A0FBF7FFFE8149EA
